S0120000535049204D61737465722E737265639A
S11300000C942A000C9447000C9447000C9447006D
S11300100C9447000C9447000C9447000C94470040
S11300200C9447000C9447000C9447000C94470030
S11300300C9447000C9447000C9447000C94470020
S11300400C9447000C9447000C9447000C94470010
S11300500C94470011241FBECFE5D8E0DEBFCDBF0E
S113006010E0A0E6B0E0E4EBF1E002C005900D92F0
S1130070A836B107D9F720E0A8E6B0E001C01D9288
S1130080A037B207E1F70E9462000C94D8000C94E8
S113009000008FEF8ABB0E9467000895CF93C0E0F1
S11300A00DC07699FECF8C2F0E94D300CBBB87EA7C
S11300B091E60197F1F700C00000CF5FCF3F89F7C9
S11300C0CF9108950E9449000E944E00FDCF88E020
S11300D0E0E6F0E0A8E6B0E001900D928A95E1F741
S11300E080916800803121F487B3806B87BB05C0A1
S11300F0811103C087B3806487BB80916F0080380F
S113010011F0811140C09DB1892B8DB980916D0092
S1130110803211F0811139C09DB1892B8DB9809144
S11301206800882311F0803191F59DB1892B8DB938
S113013080916B00882311F0883059F59DB1892B8B
S11301408DB980916C00882311F0843021F59DB124
S1130150892B8DB980916A008430F8F49DB1892B84
S11301608DB9809169008230D0F49EB1892B8EB90B
S113017080916E00882311F0803499F49DB1892B0D
S11301808DB980E0089585E0089582E0089584E0C3
S1130190089586E0089587E0089588E0089589E049
S11301A0089583E008958FB9779BFECF80E008958A
S10701B0F894FFCFED
S10B01B41000000000004000EF
S9030000FC
