:100000000C942A000C9447000C9447000C94470071
:100010000C9447000C9447000C9447000C94470044
:100020000C9447000C9447000C9447000C94470034
:100030000C9447000C9447000C9447000C94470024
:100040000C9447000C9447000C9447000C94470014
:100050000C94470011241FBECFE5D8E0DEBFCDBF12
:1000600010E0A0E6B0E0EAE1F2E002C005900D92F7
:10007000A836B107D9F720E0A8E6B0E001C01D928C
:10008000A037B207E1F70E9488000C940B010C9492
:100090000000CF93DF93CDB7DEB728970FB6F89463
:1000A000DEBF0FBECDBF8FEF8ABB88E0E0E6F0E099
:1000B000DE01119601900D928A95E1F787B3806B6E
:1000C00087BB29813A814B815C816D817E818F81E3
:1000D00098850E948D0028960FB6F894DEBF0FBE5B
:1000E000CDBFDF91CF910895CF93C0E00DC0769939
:1000F000FECF8C2F0E940601CBBB87EA91E60197C9
:10010000F1F700C00000CF5FCF3F89F7CF9108958E
:100110000E9449000E947400FDCFCF93DF93CDB7BA
:10012000DEB728970FB6F894DEBF0FBECDBF298388
:100130003A834B835C836D837E838F83988788E0CB
:10014000FE013196A8E6B0E001900D928A95E1F7A4
:1001500080916F00803811F0811140C09DB1892BD2
:100160008DB980916D00803211F0811139C09DB13F
:10017000892B8DB980916800882311F0803191F529
:100180009DB1892B8DB980916B00882311F0883047
:1001900059F59DB1892B8DB980916C00882311F0A0
:1001A000843021F59DB1892B8DB980916A0084300E
:1001B000F8F49DB1892B8DB9809169008230D0F41B
:1001C0009EB1892B8EB980916E00882311F0803406
:1001D00099F49DB1892B8DB980E00FC085E00DC0E9
:1001E00082E00BC084E009C086E007C087E005C05C
:1001F00088E003C089E001C083E028960FB6F89438
:10020000DEBF0FBECDBFDF91CF9108958FB9779B31
:0A021000FECF80E00895F894FFCFC0
:08021A0010000000000040008C
:00000001FF
