:100000000C942A000C943C000C943C000C943C0092
:100010000C943C000C943C000C943C000C943C0070
:100020000C943C000C943C000C943C000C943C0060
:100030000C943C000C943C000C943C000C943C0050
:100040000C943C000C943C000C943C000C943C0040
:100050000C943C0011241FBECFE5D8E0DEBFCDBF1D
:1000600020E0A0E6B0E001C01D92A836B207E1F79B
:100070000E947B000C9400010C940000CF93DF934E
:10008000CDB7DEB728970FB6F894DEBF0FBECDBF51
:100090008FEF8ABBFE01319688E0DF011D928A95C1
:1000A000E9F780E48F8387B3806487BB29813A8135
:1000B0004B815C816D817E818F8198850E9480005B
:1000C00028960FB6F894DEBF0FBECDBFDF91CF915B
:1000D0000895CF93DF93C0E0D0E0CE010E94F900F5
:1000E00088818BBB87EA91E60197F1F700C0000099
:1000F000DF91CF9108950E943E000E946900FDCFDC
:10010000CF93DF93CDB7DEB728970FB6F894DEBF55
:100110000FBECDBF29833A834B835C836D837E837F
:100120008F83988788E0FE013196A0E6B0E00190C9
:100130000D928A95E1F780916700803811F0811166
:1001400040C09DB1892B8DB980916500803211F03E
:10015000811139C09DB1892B8DB9809160008823B0
:1001600011F0803191F59DB1892B8DB9809163009B
:10017000882311F0883059F59DB1892B8DB9809174
:100180006400882311F0843021F59DB1892B8DB94D
:10019000809162008430F8F49DB1892B8DB98091F3
:1001A00061008230D0F49EB1892B8EB980916600B7
:1001B000882311F0803499F49DB1892B8DB980E0AA
:1001C0000FC085E00DC082E00BC084E009C086E06E
:1001D00007C087E005C088E003C089E001C083E074
:1001E00028960FB6F894DEBF0FBECDBFDF91CF913A
:1001F0000895779BFECF2FB1FC01208380E0089506
:04020000F894FFCFA0
:00000001FF
