:100000000C942A000C9447000C9447000C94470071
:100010000C9447000C9447000C9447000C94470044
:100020000C9447000C9447000C9447000C94470034
:100030000C9447000C9447000C9447000C94470024
:100040000C9447000C9447000C9447000C94470014
:100050000C94470011241FBECFE5D8E0DEBFCDBF12
:1000600011E0A0E6B0E0E8E2F7E002C005900D92F2
:10007000AE31B107D9F721E0AEE1B1E001C01D9288
:10008000AA32B207E1F70E9434010C9492030C9457
:100090000000DC0140E005C0992379F0882369F075
:1000A0004F5F242F30E0FD01E20FF31F9081FB0131
:1000B000E20FF31F8081981779F3911104C0882310
:1000C00019F081E0089581E00895EF92FF920F9377
:1000D0001F93CF93DF93CDB7DEB765970FB6F89434
:1000E000DEBF0FBECDBF8CE0E0E6F0E0DE01119692
:1000F00001900D928A95E1F711E01D8783E08E87CC
:100100001F87CE010D960E943901188B84E0898BE0
:100110001A8BCE0140960E9439011B8B85E08C8B97
:100120001D8BCE0143960E943901E980FA800B8134
:100130001C812D813E814F81588569857A858B850B
:100140009C850E944B028CE690E00E9442036596DB
:100150000FB6F894DEBF0FBECDBFDF91CF911F91D8
:100160000F91FF90EF900895CF93DF93CDB7DEB757
:1001700027970FB6F894DEBF0FBECDBF82E990E09F
:100180000E944203CE0101960E9456036CE970E082
:10019000CE0101960E944900811114C082EA90E0CC
:1001A0000E94420341E063E081E00E94B50140E02B
:1001B00064E081E00E94B50140E065E081E00E94DA
:1001C000B50149C06BEB70E0CE0101960E94490079
:1001D000811114C080EC90E00E94420340E063E093
:1001E00081E00E94B50141E064E081E00E94B50138
:1001F00040E065E081E00E94B5012DC06AED70E04D
:10020000CE0101960E944900811114C08FED90E04B
:100210000E94420340E063E081E00E94B50140E0BB
:1002200064E081E00E94B50141E065E081E00E9468
:10023000B50111C066EF70E0CE0101960E94490041
:10024000811105C089EF90E00E94420304C085E05F
:1002500091E00E94420327960FB6F894DEBF0FBECE
:10026000CDBFDF91CF9108950E9465000E94B40038
:10027000FDCFFC019081913019F130F09230E1F125
:10028000933009F455C06FC08281813061F42AB384
:1002900081E090E0018002C0880F991F0A94E2F784
:1002A000822B8ABB60C02AB381E090E0018002C04B
:1002B000880F991F0A94E2F7809582238ABB53C066
:1002C0008281813061F427B381E090E0018002C037
:1002D000880F991F0A94E2F7822B87BB44C027B38B
:1002E00081E090E0018002C0880F991F0A94E2F734
:1002F0008095822387BB37C08281813061F424B32B
:1003000081E090E0018002C0880F991F0A94E2F713
:10031000822B84BB28C024B381E090E0018002C01E
:10032000880F991F0A94E2F78095822384BB1BC033
:100330008281813061F421B381E090E0018002C0CC
:10034000880F991F0A94E2F7822B81BB0CC021B35E
:1003500081E090E0018002C0880F991F0A94E2F7C3
:100360008095822381BB80E00895843008F078C0B6
:10037000683008F077C0813011F130F08230D1F16F
:10038000833009F452C070C0413061F42BB381E076
:1003900090E002C0880F991F6A95E2F7822B8BBB11
:1003A00081E008952BB381E090E002C0880F991F8F
:1003B0006A95E2F7809582238BBB81E008954130F6
:1003C00061F428B381E090E002C0880F991F6A951C
:1003D000E2F7822B88BB81E0089528B381E090E0AA
:1003E00002C0880F991F6A95E2F78095822388BB27
:1003F00081E00895413061F425B381E090E002C0CE
:10040000880F991F6A95E2F7822B85BB81E00895DA
:1004100025B381E090E002C0880F991F6A95E2F74A
:100420008095822385BB81E00895413061F422B339
:1004300081E090E002C0880F991F6A95E2F7822B55
:1004400082BB81E0089522B381E090E002C0880F72
:10045000991F6A95E2F78095822382BB81E0089517
:1004600080E0089580E0089581E00895843049F4A3
:1004700090B5906890BD90B5966090BD9AB194602B
:100480009AB990B5906890BD20B590E0880F991FFB
:10049000822B80BD0895EF92FF920F931F93CF930D
:1004A000DF93CDB7DEB72C970FB6F894DEBF0FBE43
:1004B000CDBFE982FA820B831C832D833E834F8359
:1004C000588769877A878B879C878CE0FE013196F5
:1004D000AEE1B1E001900D928A95E1F780911F01A4
:1004E00090912001A0912101B0912201811520E17C
:1004F0009207A105B10508F09AC020911E012111B3
:100500001FC0880F991FAA1FBB1F880F991FAA1F02
:10051000BB1F9C01AD01220F331F441F551F220F2B
:10052000331F441F551F60E472E48FE090E00E9487
:100530007003BA01A901415051096109710927C02D
:10054000223009F076C08BB182608BB980911F0197
:1005500090912001A0912101B0912201880F991F53
:10056000AA1FBB1F880F991FAA1FBB1F9C01AD01AB
:10057000220F331F441F551F60E472E48FE090E0A8
:100580000E94700321503109A90160E070E0BB278F
:10059000A72F962F852F80BD49B9809123018830E0
:1005A00011F0811148C09AB1892B8AB98091240138
:1005B000803111F0811141C09AB1892B8AB98091A3
:1005C00025018530E0F50E943602809127018823BD
:1005D00011F08830B1F580B5806880BD90B5EEE14E
:1005E000F1E08185892B80BD8085882321F08032D0
:1005F00011F0803341F580B5806880BD90B5EEE1A3
:10060000F1E08085892B80BD8285803411F08111D5
:100610001CC09AB1892B8AB980912901803811F0C8
:10062000811115C09AB1892B8AB980E011C085E08B
:100630000FC081E00DC086E00BC087E009C082E0FA
:1006400007C083E005C084E003C086E001C089E004
:100650002C960FB6F894DEBF0FBECDBFDF91CF91C1
:100660001F910F91FF90EF9008955D9BFECF209119
:100670002501243021F42AB19170922B9AB98CB9BA
:1006800080E008950F931F93CF938C01C0E004C0C6
:1006900090E00E943503CF5FF801EC0FF11D8081DF
:1006A0008111F6CFCF911F910F910895AC0190E089
:1006B0000CC05F9BFECF2CB1222361F02D3051F096
:1006C000FA01E90FF11D20839F5F292F30E02630CA
:1006D00031057CF3FA01E90FF11D108280E00895E5
:1006E000A1E21A2EAA1BBB1BFD010DC0AA1FBB1F36
:1006F000EE1FFF1FA217B307E407F50720F0A21BA8
:10070000B30BE40BF50B661F771F881F991F1A9414
:1007100069F760957095809590959B01AC01BD013E
:08072000CF010895F894FFCF0A
:1007280000C80000000810030000000057656C6353
:100738006F6D6520746F206F7572205472616666E4
:100748006963204C69676874732053797374656DA5
:100758000D004D6573736167653A2000535441522B
:1007680054005B5245504C595D20477265656E20B8
:100778004C4544206973206F6E0D00574149540061
:100788005B5245504C595D2059656C6C6F77204C15
:100798004544206973206F6E0D0053544F50005B21
:1007A8005245504C595D20526564204C454420699F
:1007B80073206F6E0D004154005B5245504C595DDB
:1007C800204F4B0D005B494E464F5D20496E7661C8
:0E07D8006C6964206D6573736167650D0000C8
:00000001FF
