:100000000C9496000C94B3000C94B3000C94FE0571
:100010000C94B3000C9461090C94B3000C94B300DD
:100020000C94B3000C949B090C94B3000C94D50968
:100030000C94B3000C94B3000C94B3000C94B30074
:100040000C94B3000C94B3000C94B3000C94B30064
:100050000C94B300EC06A107A107A107F906060757
:10006000A10713077B0720072D073A074707540707
:1000700061076E078807950732083D08480853084E
:100080005E0869087408960899089D08CA08CA0895
:10009000A008A308A608AA08AD08B008B408B708C5
:1000A000BA08BE08C108C408C70807634236B79B30
:1000B000D8A71A39685618AEBAAB558C1D3CB7CCC8
:1000C0005763BD6DEDFD753EF6177231BF00000040
:1000D000803F08000000BE922449123EABAAAA2A23
:1000E000BECDCCCC4C3E00000080BEABAAAAAA3E3E
:1000F00000000000BF000000803F0000000000087A
:100100004178D3BB4387D1133D190E3CC3BD428216
:10011000AD2B3E68EC8276BED98FE1A93E4C80EFD4
:10012000FFBE01C4FF7F3F000000000011241FBE7E
:10013000CFE5D8E0DEBFCDBF10E0A0E6B0E0E4E957
:10014000F2E202C005900D92A838B107D9F720E07D
:10015000A8E8B0E001C01D92AD3BB207E1F70E94F4
:100160007D0B0C9448110C9400000E94480681E01D
:1001700008950E944D010E94B7010E94ED000E9467
:100180002D0281E00895009719F41092A7000DC088
:10019000FC012081253038F42091A500208381E0E6
:1001A0008093A70002C01092A7008091A700089535
:1001B000009719F41092A7000DC0FC01208125368C
:1001C00038F42091A600208381E08093A70002C02C
:1001D0001092A7008091A7000895CF92DF92EF922E
:1001E000FF9288EA90E00E949501C090A800D0900C
:1001F000A900E090AA00F090AB0020E030E048E5D4
:1002000052E4C701B6010E94290F18163CF486E497
:100210008093A60081E08093A5003AC020E030E002
:100220004CE352E4C701B6010E94290F88238CF0E9
:1002300020E030E048E552E4C701B6010E94D10D4C
:1002400018163CF08FE58093A60083E08093A5000C
:100250001FC020E030E04CE352E4C701B6010E9429
:10026000D10D88238CF420E030E040E050E4C70159
:10027000B6010E94290F88233CF086E48093A600F3
:1002800081E08093A50004C01092A6001092A50002
:10029000FF90EF90DF90CF900895809189008823A0
:1002A000F9F0909188009923D9F088EA90E00E94B3
:1002B00095016AE081E00E94060386E790E00E94D3
:1002C00058046AE081E00E9406036091A8007091E2
:1002D000A9008091AA009091AB000E948504089526
:1002E00081110AC090918800911106C00E941C03E0
:1002F00081E08093890008958823B1F0809188007F
:10030000811112C00E941C038130E1F780938800A4
:100310008AE790E00E9458046EE081E00E940603A4
:1003200085E890E00E9458040895009779F0409184
:10033000AC005091AD006091AE007091AF00FC0137
:10034000408351836283738381E0089580E0089540
:10035000CF93C0E005C00E948705811105C0CF5F23
:10036000C330C9F780E001C081E0CF91089580914A
:100370008A00811116C00E94A801813019F480936F
:100380008A00089510928A0080E090E0A0E8BFE320
:100390008093AC009093AD00A093AE00B093AF00FB
:1003A00008958CEA90E00E94A30508950F931F938F
:1003B000CF93DF931F92CDB7DEB78C01CE010196AC
:1003C0000E94C3008981853030F4F801808381E088
:1003D0008093B00002C01092B0008091B0000F90E6
:1003E000DF91CF911F910F9108950F931F93CF939A
:1003F000DF931F92CDB7DEB78C01CE0101960E942C
:10040000D8008981853618F01092B00005C0F80137
:10041000808381E08093B0008091B0000F90DF91E5
:10042000CF911F910F91089581E00E94D20480E046
:100430000E94D20481E0089582EB90E00E94D601F0
:10044000813039F481EB90E00E94F501813019F49C
:10045000089580E0089580E0089580918B008111D7
:1004600006C00E94140281E080938B0008950E94D0
:100470001C02882309F449C08091B2008230C1F087
:1004800028F48823E1F1813031F008958330E9F0D8
:10049000843041F1089540E06091B10080E00E9415
:1004A0000C0540E06091B10081E00E940C050895C8
:1004B00041E06091B10080E00E940C0541E0609154
:1004C000B10081E00E940C05089541E06091B10007
:1004D00080E00E940C0540E06091B10081E00E9444
:1004E0000C05089540E06091B10080E00E940C0589
:1004F00041E06091B10081E00E940C05089580E028
:100500000E94640581E00E946405089590E0FC016A
:10051000EE0FFF1F8E0F9F1FFC01E05AFF4F40E0C0
:10052000618180810E941B0C089590E0FC01EE0F18
:10053000FF1F8E0F9F1FFC01E05AFF4F41E06181BA
:1005400080810E941B0C089582E00E94860285E350
:100550008A95F1F782E00E94950208951F93CF9348
:10056000DF93182FC0E6D0E084FB442740F96A856A
:1005700089850E941B0C15FB442740F96D858C85ED
:100580000E941B0C16FB442740F968898F850E9446
:100590001B0C412F441F4427441F6B898A890E94EA
:1005A0001B0C80E00E94860281E00E9486020E946D
:1005B000A402412F41706A8589850E941B0C11FBA2
:1005C000442740F96D858C850E941B0C12FB442743
:1005D00040F968898F850E941B0C13FB442740F962
:1005E0006B898A890E941B0C80E00E94860281E050
:1005F0000E9486020E94A40281E0DF91CF911F91A8
:10060000089581E00E94AE0281E00895603180F497
:10061000813031F480E8860F0E94AE0281E00895B7
:10062000823041F480EC860F0E94AE0281E0089592
:1006300080E0089580E00895CF9380918C0083300E
:1006400009F47CC030F4882359F0813009F44BC0A0
:10065000D5C0843009F49CC0853009F4A7C0CEC051
:1006600020E040ED57E060E070E082E00E940F0A79
:1006700090E0A0E0B0E080938D0090938E00A09376
:100680008F00B093900081309105A105B10511F55F
:100690001AC0EC2FF0E0CF01880F991FE80FF91F67
:1006A000E05AFF4F8081A2EAB0E08C9381811196DD
:1006B0008C931197828112968C931297CD010E9490
:1006C000820BCF5F01C0C0E0C73018F381E0809398
:1006D0008C0097C0892B8A2B8B2B09F092C082E06B
:1006E000809391008EC021E044E650E060E070E02D
:1006F00082E00E940F0A90E0A0E0B0E080938D00BD
:1007000090938E00A0938F00B0939000813091055C
:10071000A105B10551F482E00E94AE0288E20E9478
:10072000AE0283E080938C006CC0892B8A2B8B2BCC
:1007300009F067C082E08093910063C023E044E643
:1007400050E060E070E082E00E940F0A90E0A0E0DC
:10075000B0E080938D0090938E00A0938F00B093B3
:10076000900081309105A105B10551F482E00E940D
:10077000AE0288E20E94AE0284E080938C0041C009
:10078000892B8A2B8B2BE9F582E08093910039C06D
:1007900086E00E94AE0260E081E00E9406038CE0E9
:1007A0000E94AE0285E080938C002BC025E044E6D9
:1007B00050E060E070E082E00E940F0A90E0A0E06C
:1007C000B0E080938D0090938E00A0938F00B09343
:1007D000900081309105A105B10541F40E9401030B
:1007E00081E080938C00809391000BC0892B8A2B31
:1007F0008B2B39F482E08093910003C08FEF8093BC
:10080000910080919100CF9108951F93CF93DF9332
:10081000182FC0E6D0E084FB442740F96A8589851B
:100820000E941B0C15FB442740F96D858C850E94A6
:100830001B0C16FB442740F968898F850E941B0C0E
:10084000412F441F4427441F6B898A890E941B0C37
:1008500080E00E94950281E00E9486020E94A4022C
:10086000412F41706A8589850E941B0C11FB44272A
:1008700040F96D858C850E941B0C12FB442740F9C2
:1008800068898F850E941B0C13FB442740F96B89F4
:100890008A890E941B0C80E00E94950281E00E94E0
:1008A00086020E94A40281E0DF91CF911F910895FA
:1008B0000F931F93CF93DF938C01892B01F1C0E03D
:1008C00018C0D1E0DC0F0F5F1F4F0E940504D0312C
:1008D00029F460E082E00E9406030AC0CF51C230D2
:1008E00038F40E94010360E081E00E940603D0E03A
:1008F000CD2FF80180818111E4CF81E001C080E03B
:10090000DF91CF911F910F910895CF92DF92EF92D7
:10091000FF92CF93DF93CDB7DEB72A970FB6F89447
:10092000DEBF0FBECDBF6B017C0120E030E0A9012E
:100930000E94D10D811105C080E30E94050481E071
:1009400024C02DEF3FEF4FE75FE7C701B6010E94DC
:10095000D10D8823BCF420E030E0A901C701B60125
:100960000E94290F181684F420E0AE014F5F5F4FFC
:10097000C701B6010E941B0BCE0101960E945804CC
:1009800081E003C080E001C080E02A960FB6F894B1
:10099000DEBF0FBECDBFDF91CF91FF90EF90DF9014
:1009A000CF9008950F931F93CF93DF93823060F51C
:1009B000882319F08130A1F029C0C2EAD0E013E009
:1009C0001883198301E00A83CE010E94820B1883E9
:1009D00082E089830A83CE010E94820B81E017C0E6
:1009E000C2EAD0E003E0088387E0898311E01A833C
:1009F000CE010E94820B088386E089831A83CE0190
:100A00000E94820B81E003C080E001C081E0DF91A1
:100A1000CF911F910F910895CF93823008F049C074
:100A2000653608F048C0423008F047C0C62F88231A
:100A300019F0813009F143C0442319F0413061F0CD
:100A400015C040E062E083E00E941B0C41E063E0DF
:100A500083E00E941B0C0AC040E063E083E00E9438
:100A60001B0C41E062E083E00E941B0C6C2F80E0D5
:100A70000E940B0D81E026C0442319F0413069F03B
:100A800020C040E066E083E00E941B0C41E067E08C
:100A900083E00E941B0C81E015C040E067E083E02A
:100AA0000E941B0C41E066E083E00E941B0C81E089
:100AB00009C080E007C080E005C080E003C081E09D
:100AC00001C081E0CF9108958230E8F4882319F0C5
:100AD000813069F01AC040E063E083E00E941B0CA3
:100AE00040E062E083E00E941B0C81E0089540E05A
:100AF00067E083E00E941B0C40E066E083E00E9418
:100B00001B0C81E0089580E0089581E008951F9313
:100B1000CF93DF93C2EAD0E011E0188319821A83E1
:100B2000CE010E94820B188382E089831A82CE0153
:100B30000E94820B63E082E00E949C0C81E0DF91C6
:100B4000CF911F910895CF92DF92EF92FF92CF93B2
:100B5000DF93EC0140E060E081E00E941B0C85E047
:100B60008A95F1F741E060E081E00E941B0C8AE188
:100B70008A95F1F740E060E081E00E941B0C6091F3
:100B800093007091940080E090E00E94770E26E937
:100B900033E44BE050E40E942E0F6B017C0168832C
:100BA00079838A839B8320E030E048EC53E40E9401
:100BB000290F88234CF080E090E0A8ECB3E4888310
:100BC0009983AA83BB8312C020E030E040E050E468
:100BD000C701B6010E94D10D181644F080E090E0E4
:100BE000A0E8BFE388839983AA83BB8381E0DF9178
:100BF000CF91FF90EF90DF90CF9008951F920F92CA
:100C00000FB60F9211242F933F934F935F936F93DF
:100C10007F938F939F93AF93BF93EF93FF938091B5
:100C200092008F5F80939200813089F460E070E0E1
:100C30000E948D0826E030E040E050E060E081E076
:100C40000E944C0662E082E00E949C0C10C0823040
:100C500071F463E970E081E00E94170963E082E0CB
:100C60000E949C0C81E00E94340910929200FF9136
:100C7000EF91BF91AF919F918F917F916F915F9114
:100C80004F913F912F910F900FBE0F901F9018958D
:100C90008FB780688FBF0895833008F030C262310B
:100CA00008F02FC2813009F48CC020F0823009F4A2
:100CB000ACC129C2613069F028F0623089F063303C
:100CC000B1F023C283B7877F83BF83B78F7B83BF96
:100CD00014C083B7877F83BF83B7806483BF0DC091
:100CE00083B7886083BF83B78F7B83BF06C083B71A
:100CF000886083BF83B7806483BF2330310541059B
:100D0000510599F158F42115310541055105B9F006
:100D10002130310541055105E9F0F9C12630310591
:100D200041055105C1F12730310541055105F1F16A
:100D3000253031054105510509F0E9C121C083B7CE
:100D4000816083BF83B78D7F83BF83B78B7F83BF72
:100D500080E0089583B78E7F83BF83B7826083BFAF
:100D600083B78B7F83BF81E0089583B78E7F83BF76
:100D700083B7826083BF83B7846083BF81E00895B7
:100D800083B78E7F83BF83B78D7F83BF83B7846034
:100D900083BF81E0089583B7816083BF83B78D7F70
:100DA00083BF83B7846083BF81E0089583B78E7F5C
:100DB00083BF83B78D7F83BF83B78B7F83BF81E082
:100DC0000895862F90E08231910508F0BAC0FC01A9
:100DD000E65DFF4F0C9442118FB58E7F8FBD8FB5AE
:100DE0008D7F8FBD8EB5877F8EBD8EB58F7E8EBD7C
:100DF000A8C08FB581608FBD8FB58D7F8FBD8EB53B
:100E0000877F8EBD8EB58F7E8EBD9BC08FB58E7F4A
:100E10008FBD8FB582608FBD8EB5877F8EBD8EB53D
:100E20008F7E8EBD8EC08FB581608FBD8FB5826085
:100E30008FBD8EB5877F8EBD8EB58F7E8EBD81C0F6
:100E40008FB58E7F8FBD8FB58D7F8FBD8EB588603E
:100E50008EBD8EB58F7E8EBD74C08FB581608FBD07
:100E60008FB58D7F8FBD8EB588608EBD8EB58F7E20
:100E70008EBD67C08FB58E7F8FBD8FB582608FBDF1
:100E80008EB588608EBD8EB58F7E8EBD5AC08FB5F3
:100E900081608FBD8FB582608FBD8EB588608EBD3D
:100EA0008EB58F7E8EBD4DC08FB58E7F8FBD8FB5B9
:100EB0008D7F8FBD8EB5877F8EBD8EB580618EBDD7
:100EC00040C08FB581608FBD8FB58D7F8FBD8EB5D2
:100ED000877F8EBD8EB580618EBD33C08FB581603A
:100EE0008FBD8FB582608FBD8EB5877F8EBD8EB56D
:100EF00080618EBD26C08FB58E7F8FBD8FB58D7FF3
:100F00008FBD8EB588608EBD8EB580618EBD19C0D7
:100F10008FB58E7F8FBD8FB582608FBD8EB5886097
:100F20008EBD8EB580618EBD0CC08FB581608FBDCA
:100F30008FB582608FBD8EB588608EBD8EB58061A5
:100F40008EBD233031054105510599F158F4211525
:100F5000310541055105B9F02130310541055105F3
:100F6000E9F0D7C02630310541055105C1F12730E0
:100F7000310541055105F1F1253031054105510596
:100F800009F0C7C021C08EB581608EBD8EB58D7F42
:100F90008EBD8EB58B7F8EBD81E008958EB58E7F20
:100FA0008EBD8EB582608EBD8EB58B7F8EBD81E08D
:100FB00008958EB581608EBD8EB582608EBD8EB572
:100FC0008B7F8EBD81E008958EB58E7F8EBD8EB5F0
:100FD0008D7F8EBD8EB584608EBD81E008958EB507
:100FE00081608EBD8EB58D7F8EBD8EB584608EBDC9
:100FF00081E008958EB58E7F8EBD8EB58D7F8EBDBE
:101000008EB58B7F8EBD81E00895613069F028F048
:10101000623089F06330B1F01BC085B5877F85BD34
:1010200085B58F7B85BD14C085B5877F85BD85B5AA
:10103000806485BD0DC085B5886085BD85B58F7B15
:1010400085BD06C085B5886085BD85B5806485BDD4
:10105000F9013197E730F10508F05DC0E45CFF4F1E
:101060000C94421185B58E7F85BD85B5826085BDA6
:1010700085B58B7F85BD81E0089585B5816085BD8F
:1010800085B5826085BD85B58B7F85BD81E008957E
:1010900085B58E7F85BD85B58D7F85BD85B5846021
:1010A00085BD81E0089585B5816085BD85B58D7F5D
:1010B00085BD85B5846085BD81E0089585B58E7F49
:1010C00085BD85B5826085BD85B5846085BD81E0BF
:1010D000089585B5816085BD85B5826085BD85B57E
:1010E000846085BD81E0089585B58E7F85BD85B519
:1010F0008D7F85BD85B58B7F85BD81E0089580E0BE
:10110000089580E0089580E0089580E0089580E0EB
:10111000089580E0089580E0089590E0823191057F
:10112000C8F5FC01ED5BFF4F0C94421162BF81E0FA
:1011300008957DBD6CBD81E0089564BD81E0089592
:101140006DBD81E008956CBD81E008957BBD6ABDF1
:1011500081E008956BBD81E008956ABD81E0089546
:1011600079BD68BD81E0089569BD81E0089568BDDD
:1011700081E0089577BD66BD81E0089567BD81E097
:10118000089566BD81E0089563BD81E008956CBF58
:1011900081E0089580E00895813099F018F0823060
:1011A00079F13DC0662319F0613031F03AC089B75A
:1011B000816089BF81E0089589B7826089BF81E03D
:1011C0000895623099F018F4662331F02CC0633032
:1011D00041F0643081F027C089B7846089BF81E025
:1011E000089589B7886089BF81E0089589B78061D3
:1011F00089BF81E0089589B7806289BF81E0089541
:10120000662319F0613031F010C089B7806489BF5E
:1012100081E0089589B7806889BF81E0089580E002
:10122000089580E0089580E0089580E00895813079
:1012300059F018F0823079F015C082B790E0FB01C8
:101240009183808381E008958CB59DB5FB019183E6
:10125000808381E0089584B590E0FB0191838083D1
:1012600081E0089580E00895833038F5813079F089
:1012700018F08230B9F023C083B78E7F83BF83B765
:101280008D7F83BF83B78B7F83BF81E008958EB549
:101290008E7F8EBD8EB58D7F8EBD8EB58B7F8EBDC4
:1012A00081E0089585B58E7F85BD85B58D7F85BD2F
:1012B00085B58B7F85BD81E0089580E0089580E04D
:1012C00008951F920F920FB60F9211242F933F9300
:1012D0004F935F936F937F938F939F93AF93BF933E
:1012E000EF93FF936FEF70E082E00E948D08809192
:1012F000960090919700A0919800B0919900019666
:10130000A11DB11D8093960090939700A093980023
:10131000B0939900FF91EF91BF91AF919F918F9101
:101320007F916F915F914F913F912F910F900FBEE1
:101330000F901F9018951F920F920FB60F921124C5
:101340002F933F934F935F936F937F938F939F93CD
:10135000AF93BF93EF93FF936FEF70E081E00E9434
:101360008D0880919A0090919B00A0919C00B09173
:101370009D000196A11DB11D80939A0090939B0042
:10138000A0939C00B0939D00FF91EF91BF91AF910E
:101390009F918F917F916F915F914F913F912F918D
:1013A0000F900FBE0F901F9018951F920F920FB6BF
:1013B0000F9211242F933F934F935F936F937F93DB
:1013C0008F939F93AF93BF93EF93FF936FEF70E073
:1013D00080E00E948D0880919E0090919F00A091D6
:1013E000A000B091A1000196A11DB11D80939E00A7
:1013F00090939F00A093A000B093A100FF91EF9164
:10140000BF91AF919F918F917F916F915F914F911C
:101410003F912F910F900FBE0F901F901895CF9274
:10142000DF92EF92FF92CF936A017B01C22F82304D
:1014300009F073C080919500811123C06FEF70E0B7
:1014400082E00E948D0860E082E00E94CC0821E0EA
:1014500030E040E050E060E082E00E944C0681E035
:101460008093950080E00BC0E82FF0E0ED54FF4F33
:101470009081992319F08093750003C08F5F8A30A3
:1014800098F38091960090919700A0919800B09168
:101490009900C816D906EA06FB0618F58091750072
:1014A0008C131FC082E00E943409109296001092A3
:1014B0009700109298001092990010929500E09178
:1014C0007500F0E0ED54FF4F10828FEF80937500B0
:1014D00029E040E050E0BA0182E00E940F0AC1E03A
:1014E00021C080917500C81739F0EC2FF0E0ED5461
:1014F000FF4FC082C3E016C0409196005091970004
:1015000060919800709199004C155D056E057F05FE
:1015100030F4C81731F0C2E005C0C2E003C0C2E039
:1015200001C0C0E0809175008F3F69F482E00E94A5
:101530003409109296001092970010929800109221
:101540009900109295008C2FCF91FF90EF90DF9033
:10155000CF9008959C01615090E00CC0D901A90F73
:10156000B11D8C91F901E60FF11D40814C938083F0
:101570009F5F6150961790F308954F925F926F921C
:101580007F928F929F92AF92BF92EF92FF920F93B2
:101590001F93CF93DF93EA0128013901611571058B
:1015A00081059105B9F1812C912C540115C07E0162
:1015B000E80CF91C2AE030E040E050E00E942011E5
:1015C000605DF7016083622F732F842F952FFFEFEB
:1015D0008F1A9F0AAF0ABF0A61157105810591052F
:1015E00031F70AC0FE01E80DF91D80E380832FEF7B
:1015F000821A920AA20AB20A84149504A604B704B5
:1016000088F3182D682DCE010E94AA0AC80DD91D95
:10161000188201C010E3812FDF91CF911F910F91AC
:10162000FF90EF90BF90AF909F908F907F906F90C2
:101630005F904F9008954F925F926F927F928F923A
:101640009F92BF92CF92DF92EF92FF920F931F93E0
:10165000CF93DF936B017C014A01B22E0E94480EAA
:101660002B013C010E94770E9B01AC01C701B60122
:101670000E94640D6B017C0100E010E09801A40160
:10168000C301B2010E94BD0ABB2039F1C82FD0E0CE
:10169000F401EC0FFD1F8EE280834B2C512C612C4A
:1016A000712CC301B2010E94770E9B01AC0160E076
:1016B00070E080E291E40E949B0F9B01AC01C701A6
:1016C000B6010E942E0F2196C80DD91D0E94480E0A
:1016D00093018201AE010E94BD0ADF91CF911F915B
:1016E0000F91FF90EF90DF90CF90BF909F908F90E1
:1016F0007F906F905F904F9008950E94B5000E9478
:10170000B900FDCFFC019081943008F08EC081813A
:10171000883008F08CC0913041F138F0923009F4F3
:1017200044C0933009F461C084C09281913071F457
:101730004AB321E030E0B90102C0660F771F8A95F5
:10174000E2F7CB01842B8ABB81E008954AB321E004
:1017500030E0B90102C0660F771F8A95E2F7CB012E
:10176000809584238ABB80E008959281913071F442
:1017700047B321E030E0B90102C0660F771F8A95B8
:10178000E2F7CB01842B87BB81E0089547B321E0CA
:1017900030E0B90102C0660F771F8A95E2F7CB01EE
:1017A0008095842387BB81E008959281913071F404
:1017B00044B321E030E0B90102C0660F771F8A957B
:1017C000E2F7CB01842B84BB81E0089544B321E090
:1017D00030E0B90102C0660F771F8A95E2F7CB01AE
:1017E0008095842384BB81E008959281913071F4C7
:1017F00041B321E030E0B90102C0660F771F8A953E
:10180000E2F7CB01842B81BB81E0089541B321E055
:1018100030E0B90102C0660F771F8A95E2F7CB016D
:101820008095842381BB81E0089580E0089580E065
:10183000089580E00895843008F078C0683008F09A
:1018400077C0813011F130F08230D1F1833009F46A
:1018500052C070C0413061F42BB381E090E002C00F
:10186000880F991F6A95E2F7822B8BBB81E0089560
:101870002BB381E090E002C0880F991F6A95E2F7D0
:10188000809582238BBB81E00895413061F428B3B9
:1018900081E090E002C0880F991F6A95E2F7822BE1
:1018A00088BB81E0089528B381E090E002C0880FF2
:1018B000991F6A95E2F78095822388BB81E008959D
:1018C000413061F425B381E090E002C0880F991F98
:1018D0006A95E2F7822B85BB81E0089525B381E00C
:1018E00090E002C0880F991F6A95E2F780958223E5
:1018F00085BB81E00895413061F422B381E090E03E
:1019000002C0880F991F6A95E2F7822B82BB81E0A3
:10191000089522B381E090E002C0880F991F6A9574
:10192000E2F78095822382BB81E0089580E00895EC
:1019300080E0089581E008959FB790689FBF64306C
:1019400008F045C0811114C085B78C7F6370682B87
:1019500065BF8BB780648BBFE2EAF0E083E08083F1
:1019600082E081831282CF010E94820B81E0089580
:10197000813099F485B7837F6C70682B65BF8BB716
:1019800080688BBFE2EAF0E083E08083818312828B
:10199000CF010E94820B81E008958230D1F4623041
:1019A00021F484B78F7B84BF03C084B7806484BF75
:1019B0008BB780628BBFE2EAF0E081E0808382E057
:1019C00081831282CF010E94820B81E0089580E022
:1019D000089580E00895882319F0813069F019C0D6
:1019E000E2EAF0E081E0808393E091838283CF019B
:1019F0000E94820B81E00895E2EAF0E083E08083B8
:101A000087E0818381E08283CF010E94820B81E0A5
:101A1000089580E00895CF93653608F04EC0C82F32
:101A2000811122C083B7886483BF83B7816083BF7D
:101A300083B7806283BF611102C01CBE38C070E0F2
:101A400080E090E00E94790E2AE037ED43E250E416
:101A50000E942E0F20E030E040E85FE30E94640D1A
:101A60000E94480E6CBF23C0813049F585B588645B
:101A700085BD85B5816085BD85B5806285BD6111F7
:101A800002C013BC14C070E080E090E00E94790EA8
:101A90002AE037ED43E250E40E942E0F20E030E0D0
:101AA00040E85FE30E94640D0E94480E63BD8C2FE6
:101AB0000E94EB0C811105C005C080E003C080E0EE
:101AC00001C081E0CF9108955058BB27AA270E94FA
:101AD0007C0D0C94EF0E0E94E10E38F00E94E80E8F
:101AE00020F039F49F3F19F426F40C94DE0E0EF426
:101AF000E095E7FB0C94D80EE92F0E94000F58F3F5
:101B0000BA17620773078407950720F079F4A6F5E2
:101B10000C94220F0EF4E0950B2EBA2FA02D0B0182
:101B2000B90190010C01CA01A0011124FF27591B22
:101B300099F0593F50F4503E68F11A16F040A22F28
:101B4000232F342F4427585FF3CF46953795279599
:101B5000A795F0405395C9F77EF41F16BA0B620B98
:101B6000730B840BBAF09150A1F0FF0FBB1F661FDF
:101B7000771F881FC2F70EC0BA0F621F731F841F22
:101B800048F4879577956795B795F7959E3F08F048
:101B9000B0CF9395880F08F09927EE0F979587950A
:101BA00008950E94B40E08F481E008950E94EA0DA1
:101BB0000C94EF0E0E94E80E58F00E94E10E40F0E7
:101BC00029F45F3F29F00C94D80E51110C94230F87
:101BD0000C94DE0E0E94000F68F39923B1F3552395
:101BE00091F3951B550BBB27AA2762177307840730
:101BF00038F09F5F5F4F220F331F441FAA1FA9F3C6
:101C000035D00E2E3AF0E0E832D091505040E695B3
:101C1000001CCAF72BD0FE2F29D0660F771F881F14
:101C2000BB1F261737074807AB07B0E809F0BB0B07
:101C3000802DBF01FF2793585F4F3AF09E3F51051B
:101C400078F00C94D80E0C94230F5F3FE4F3983E89
:101C5000D4F3869577956795B795F7959F5FC9F704
:101C6000880F911D9695879597F90895E1E0660F85
:101C7000771F881FBB1F621773078407BA0720F0FE
:101C8000621B730B840BBA0BEE1F88F7E095089567
:101C90000E94080F88F09F5798F0B92F9927B751E5
:101CA000B0F0E1F0660F771F881F991F1AF0BA9500
:101CB000C9F714C0B13091F00E94220FB1E008952D
:101CC0000C94220F672F782F8827B85F39F0B93F1F
:101CD000CCF3869577956795B395D9F73EF49095B3
:101CE0008095709561957F4F8F4F9F4F0895E89431
:101CF00009C097FB3EF490958095709561957F4F54
:101D00008F4F9F4F9923A9F0F92F96E9BB27939501
:101D1000F695879577956795B795F111F8CFFAF411
:101D2000BB0F11F460FF1BC06F5F7F4F8F4F9F4F42
:101D300016C0882311F096E911C0772321F09EE8A0
:101D4000872F762F05C0662371F096E8862F70E006
:101D500060E02AF09A95660F771F881FDAF7880FE0
:101D60009695879597F90895990F0008550FAA0B36
:101D7000E0E8FEEF16161706E807F907C0F012169E
:101D80001306E407F50798F0621B730B840B950BA1
:101D900039F40A2661F0232B242B252B21F40895F6
:101DA0000A2609F4A140A6958FEF811D811D089593
:101DB00097F99F6780E870E060E008959FEF80ECFE
:101DC000089500240A9416161706180609060895A1
:101DD00000240A9412161306140605060895092E07
:101DE0000394000C11F4882352F0BB0F40F4BF2B76
:101DF00011F460FF04C06F5F7F4F8F4F9F4F0895B6
:101E000057FD9058440F551F59F05F3F71F04795AB
:101E1000880F97FB991F61F09F3F79F08795089590
:101E2000121613061406551FF2CF4695F1DF08C0AF
:101E3000161617061806991FF1CF869571056105CC
:101E400008940895E894BB2766277727CB0197F974
:101E500008950E94B40E08F48FEF08950E94410F78
:101E60000C94EF0E0E94E10E38F00E94E80E20F074
:101E7000952311F00C94D80E0C94DE0E11240C94C2
:101E8000230F0E94000F70F3959FC1F3950F50E050
:101E9000551F629FF001729FBB27F00DB11D639F1C
:101EA000AA27F00DB11DAA1F649F6627B00DA11DC2
:101EB000661F829F2227B00DA11D621F739FB00D68
:101EC000A11D621F839FA00D611D221F749F3327D8
:101ED000A00D611D231F849F600D211D822F762F71
:101EE0006A2F11249F5750409AF0F1F088234AF04E
:101EF000EE0FFF1FBB1F661F771F881F91505040BA
:101F0000A9F79E3F510580F00C94D80E0C94230F36
:101F10005F3FE4F3983ED4F3869577956795B79540
:101F2000F795E7959F5FC1F7FE2B880F911D96955A
:101F3000879597F90895FA01EE0FFF1F3096210556
:101F40003105A1F16115710561F48038BFE39B078C
:101F500049F168949038810561F08038BFEF9B07A4
:101F600041F099234AF5FF3FE1053105210519F1BB
:101F7000E8940894E795D901AA2329F4AB2FBE2F42
:101F8000F85FD0F310C0FF5F70F4A695E0F7F73963
:101F900050F019F0FF3A38F49F779F930DD00F90CF
:101FA00007FC9058089546F00C94DE0E60E070E057
:101FB00080E89FE308954FE79F775F934F933F93A8
:101FC0002F930E9496102F913F914F915F910E9405
:101FD0002E0F0C94F30F29F416F00C94D80E0C94D9
:101FE000220F0C94DE0E0E94080FA8F39638A0F77B
:101FF00007F80F92E8942BE33AEA48EB5FE70E9478
:10200000440F0F920F920F924DB75EB70F920E943E
:10201000DE10EAEAF0E00E9425104F915F91EF9107
:10202000FF91E595EE1FFF1F49F0FE57E06844273A
:10203000EE0F441FFA95E1F74195550B0E94581099
:102040000F9007FE0C944C100895DF93CF931F93CD
:102050000F93FF92EF92DF927B018C01689406C090
:10206000DA2EEF010E94410FFE01E894A59125911F
:10207000359145915591A6F3EF010E947C0DFE012B
:102080009701A801DA9469F7DF90EF90FF900F9124
:102090001F91CF91DF9108959B01AC0160E070E04A
:1020A00080E89FE30C94D60D0C94D80E0C9412117A
:1020B0000E94080FD8F39923C9F3940F511DA3F37D
:1020C0009150504094F059F0882332F0660F771FFA
:1020D000881F91505040C1F79E3F51052CF7880F43
:1020E000911D9695879597F908955F3FACF0983EBE
:1020F0009CF0BB27869577956795B79508F4B160F6
:102100009395C1F7BB0F58F711F460FFE8CF6F5FED
:102110007F4F8F4F9F4FE3CF0C94230F16F00C94FB
:1021200012110C94DE0E68940C94D80E0E94080FC5
:10213000A8F39923C1F3AEF3DF93CF931F930F93CB
:10214000FF92C92FDD2788232AF02197660F771F7A
:10215000881FDAF720E030E040E85FEB9FE3883942
:1021600020F0803E38F021968F770E94650DE2EDD9
:10217000F0E004C00E94650DEFEFF0E00E94251032
:102180008B01BE01EC01FB2E6F5771097595771F0E
:10219000880B990B0E94790E28E132E741E35FE357
:1021A0000E94410FAF2D9801AE01FF900F911F913A
:1021B000CF91DF910E947C0D0C94EF0EFA01DC01AF
:1021C000AA0FBB1F9B01AC01BF5728F4222733275E
:1021D0004427507820C0B75190F4AB2F0024469587
:1021E00037952795011CA395D2F3002071F0220F9B
:1021F000331F441FB395DAF30ED00C94640D613095
:102200007105A0E88A07B94630F49B01AC01662746
:10221000772788279078309621F020833183428376
:10222000538308959F3F31F0915020F4879577951F
:102230006795B795880F911D9695879597F908959D
:10224000A1E21A2EAA1BBB1BFD010DC0AA1FBB1FBA
:10225000EE1FFF1FA217B307E407F50720F0A21B2C
:10226000B30BE40BF50B661F771F881F991F1A9499
:1022700069F760957095809590959B01AC01BD01C3
:10228000CF010895EE0FFF1F0590F491E02D099402
:04229000F894FFCFF0
:102294000001010002010003010004010005010026
:1022A4000601000701FF2020200044697374616E59
:0822B40063653A2000636D0030
:00000001FF
