:100000000C9455000C9472000C9472000C948D03A7
:100010000C9413090C9442070C9472000C94720017
:100020000C9472000C947C070C9472000C94B6072C
:100030000C9472000C9472000C9472000C94720078
:100040000C9472000C9472000C9472000C94720068
:100050000C947200CD04820582058205DA04E7045F
:100060008205F4045C0501050E051B052805350510
:1000700042054F056905760513061E062906340656
:100080003F064A06550677067A067E06AB06AB069D
:100090008106840687068B068E06910695069806CD
:1000A0009B069F06A206A506A80611241FBECFE543
:1000B000D8E0DEBFCDBF10E0A0E6B0E0EEEEF9E1A3
:1000C00002C005900D92A437B107D9F720E0A4E74C
:1000D000B0E001C01D92AC3AB207E1F70E943709C7
:1000E0000C94F50C0C940000CF93DF93CDB7DEB7E2
:1000F00062970FB6F894DEBF0FBECDBF0E94B60365
:100100000E9458010E94D00186E0E2E6F0E0DE01A4
:10011000119601900D928A95E1F786E0E8E6F0E00D
:10012000DE01179601900D928A95E1F786E0EEE6E2
:10013000F0E0DE011D9601900D928A95E1F7CE0167
:1001400001960E94F808CE0107960E94F808CE0199
:100150000D960E94F8080E94CE0881E062960FB6C4
:10016000F894DEBF0FBECDBFDF91CF9108950E94FE
:10017000E10881E00895009719F410928E000DC0F7
:10018000FC012081253038F420918C00208381E00F
:1001900080938E0002C010928E0080918E00089590
:1001A000009719F410928E000DC0FC0120812536B5
:1001B00038F420918D00208381E080938E0002C06E
:1001C00010928E0080918E000895CF92DF92EF9270
:1001D000FF928FE890E00E944501C0908F00D09080
:1001E0009000E0909100F090920020E030E048E52F
:1001F00052E4C701B6010E94710C18163CF486E463
:1002000080938D0081E080938C003AC020E030E044
:100210004CE352E4C701B6010E94710C88238CF0B4
:1002200020E030E048E552E4C701B6010E948B0BA4
:1002300018163CF08FE580938D0083E080938C004E
:100240001FC020E030E04CE352E4C701B6010E9439
:100250008B0B88238CF420E030E040E050E4C701B1
:10026000B6010E94710C88233CF086E480938D00D7
:1002700082E080938C0004C010928D0010928C005C
:10028000FF90EF90DF90CF900895009779F0409124
:100290009300509194006091950070919600FC013C
:1002A000408351836283738381E0089580E00895E1
:1002B000CF93C0E00AC00E94F002811102C0CF5F5C
:1002C00004C081E08093740002C0C330A1F7809124
:1002D0007400CF91089580917400813029F483E9EE
:1002E00090E00E940C03089580E090E0A0E8BFE356
:1002F0008093930090939400A0939500B093960000
:1003000008950F931F93CF93DF931F92CDB7DEB75E
:100310008C01CE0101960E94BB008981853030F4AA
:10032000F801808381E08093970002C010929700CB
:10033000809197000F90DF91CF911F910F910895B9
:100340000F931F93CF93DF931F92CDB7DEB78C012E
:10035000CE0101960E94D0008981853618F0109256
:10036000970005C0F801808381E080939700809119
:1003700097000F90DF91CF911F910F91089589E918
:1003800090E00E948101813039F488E990E00E9478
:10039000A001813019F4089580E0089580E0089567
:1003A00081E00E943B02813019F48093750002C005
:1003B0001092750080E00E943B02813019F4809316
:1003C000750002C0109275008091750008958091AB
:1003D0007500813009F04EC00E94BF01813009F0E4
:1003E00049C0809199008230C1F028F48823E1F15E
:1003F000813031F008958330E9F0843041F108957F
:1004000040E06091980080E00E94750240E06091B9
:10041000980081E00E947502089541E06091980083
:1004200080E00E94750241E06091980081E00E94A6
:100430007502089541E06091980080E00E94750285
:1004400040E06091980081E00E947502089540E0CC
:100450006091980080E00E94750241E060919800F0
:1004600081E00E947502089580E00E94CD0281E043
:100470000E94CD0208950F931F93CF93DF93823094
:1004800060F5882319F08130A1F029C0C9E8D0E0D7
:1004900013E01883198301E00A83CE010E943C090E
:1004A000188382E089830A83CE010E943C0981E09F
:1004B00017C0C9E8D0E003E0088387E0898311E032
:1004C0001A83CE010E943C09088386E089831A833F
:1004D000CE010E943C0981E003C080E001C081E0C0
:1004E000DF91CF911F910F910895CF93823008F043
:1004F00049C0653608F048C0423008F047C0C62FF2
:10050000882319F0813009F143C0442319F04130A8
:1005100061F015C040E062E083E00E94D50941E04F
:1005200063E083E00E94D5090AC040E063E083E015
:100530000E94D50941E062E083E00E94D5096C2F5A
:1005400080E00E94C50A81E026C0442319F04130B2
:1005500069F020C040E066E083E00E94D50941E0F8
:1005600067E083E00E94D50981E015C040E067E0C4
:1005700083E00E94D50941E066E083E00E94D5094E
:1005800081E009C080E007C080E005C080E003C0D2
:1005900081E001C081E0CF9108958230E8F48823A2
:1005A00019F0813069F01AC040E063E083E00E94F6
:1005B000D50940E062E083E00E94D50981E008951A
:1005C00040E067E083E00E94D50940E066E083E018
:1005D0000E94D50981E0089580E0089581E00895A2
:1005E0001F93CF93DF93C9E8D0E011E018831982FD
:1005F0001A83CE010E943C09188382E089831A8203
:10060000CE010E943C0963E082E00E94560A81E02C
:10061000DF91CF911F910895CF92DF92EF92FF92D9
:10062000CF93DF93EC0140E060E081E00E94D509C8
:1006300085E08A95F1F741E060E081E00E94D5090C
:100640008AE18A95F1F740E060E081E00E94D509F7
:10065000609177007091780080E090E00E94BF0B7D
:1006600026E933E44BE050E40E94760C6B017C01F8
:10067000688379838A839B8320E030E048EC53E4ED
:100680000E94710C88234CF080E090E0A8ECB3E469
:1006900088839983AA83BB8312C020E030E040E0C6
:1006A00050E4C701B6010E948B0B181644F080E09D
:1006B00090E0A0E8BFE388839983AA83BB8381E0AD
:1006C000DF91CF91FF90EF90DF90CF9008958091D0
:1006D0007600813089F460E070E00E946E0626E0CA
:1006E00030E040E050E060E081E00E942D0462E0F4
:1006F00082E00E94560A0895823071F467E770E044
:1007000081E00E94F80663E082E00E94560A81E0E0
:100710000E9415071092760008951F920F920FB64F
:100720000F9211242F933F934F935F936F937F9377
:100730008F939F93AF93BF93EF93FF938091760036
:100740008F5F809376000E946703FF91EF91BF91C6
:10075000AF919F918F917F916F915F914F913F9159
:100760002F910F900FBE0F901F9018958FB7806834
:100770008FBF0895823049F128F4882351F08130E9
:10078000B1F05BC08430E9F170F1853009F447C005
:1007900054C085B78F7E85BF85B78F7D85BF85B7F0
:1007A0008F7B85BF85B7806885BF81E0089585B759
:1007B000806185BF85B78F7D85BF85B78F7B85BFFE
:1007C00085B7806885BF81E0089585B78F7E85BF36
:1007D00085B7806285BF85B78F7B85BF85B7806809
:1007E00085BF81E0089585B7806185BF85B7806248
:1007F00085BF85B78F7B85BF85B7806885BF81E062
:10080000089585B78F7E85BF85B7806285BF85B720
:10081000806485BF85B7806885BF81E0089585B70E
:10082000806185BF85B7806285BF85B7806485BFDD
:1008300085B7806885BF81E0089580E0089585B719
:100840008F7E85BF85B78F7D85BF85B78F7B85BF41
:1008500085B78F7785BF81E00895833008F030C277
:10086000623108F02FC2813009F48CC020F0823050
:1008700009F4ACC129C2613069F028F0623089F016
:100880006330B1F023C283B7877F83BF83B78F7B89
:1008900083BF14C083B7877F83BF83B7806483BF60
:1008A0000DC083B7886083BF83B78F7B83BF06C0CB
:1008B00083B7886083BF83B7806483BF23303105EB
:1008C0004105510599F158F42115310541055105AE
:1008D000B9F02130310541055105E9F0F9C1263063
:1008E000310541055105C1F127303105410551055B
:1008F000F1F1253031054105510509F0E9C121C06B
:1009000083B7816083BF83B78D7F83BF83B78B7FBE
:1009100083BF80E0089583B78E7F83BF83B78260F3
:1009200083BF83B78B7F83BF81E0089583B78E7FBA
:1009300083BF83B7826083BF83B7846083BF81E056
:10094000089583B78E7F83BF83B78D7F83BF83B7BF
:10095000846083BF81E0089583B7816083BF83B7DC
:100960008D7F83BF83B7846083BF81E0089583B7A1
:100970008E7F83BF83B78D7F83BF83B78B7F83BF1A
:1009800081E00895862F90E08231910508F0BAC089
:10099000FC01E65DFF4F0C94EF0C8FB58E7F8FBD91
:1009A0008FB58D7F8FBD8EB5877F8EBD8EB58F7EC7
:1009B0008EBDA8C08FB581608FBD8FB58D7F8FBD77
:1009C0008EB5877F8EBD8EB58F7E8EBD9BC08FB559
:1009D0008E7F8FBD8FB582608FBD8EB5877F8EBDB8
:1009E0008EB58F7E8EBD8EC08FB581608FBD8FB569
:1009F00082608FBD8EB5877F8EBD8EB58F7E8EBD9A
:100A000081C08FB58E7F8FBD8FB58D7F8FBD8EB529
:100A100088608EBD8EB58F7E8EBD74C08FB58160AF
:100A20008FBD8FB58D7F8FBD8EB588608EBD8EB525
:100A30008F7E8EBD67C08FB58E7F8FBD8FB5826074
:100A40008FBD8EB588608EBD8EB58F7E8EBD5AC02F
:100A50008FB581608FBD8FB582608FBD8EB5886088
:100A60008EBD8EB58F7E8EBD4DC08FB58E7F8FBDF6
:100A70008FB58D7F8FBD8EB5877F8EBD8EB5806122
:100A80008EBD40C08FB581608FBD8FB58D7F8FBD0E
:100A90008EB5877F8EBD8EB580618EBD33C08FB51C
:100AA00081608FBD8FB582608FBD8EB5877F8EBD13
:100AB0008EB580618EBD26C08FB58E7F8FBD8FB500
:100AC0008D7F8FBD8EB588608EBD8EB580618EBDE9
:100AD00019C08FB58E7F8FBD8FB582608FBD8EB5EB
:100AE00088608EBD8EB580618EBD0CC08FB5816073
:100AF0008FBD8FB582608FBD8EB588608EBD8EB57F
:100B000080618EBD233031054105510599F158F4BE
:100B10002115310541055105B9F021303105410557
:100B20005105E9F0D7C02630310541055105C1F125
:100B30002730310541055105F1F1253031054105D9
:100B4000510509F0C7C021C08EB581608EBD8EB53C
:100B50008D7F8EBD8EB58B7F8EBD81E008958EB565
:100B60008E7F8EBD8EB582608EBD8EB58B7F8EBD25
:100B700081E008958EB581608EBD8EB582608EBD98
:100B80008EB58B7F8EBD81E008958EB58E7F8EBD34
:100B90008EB58D7F8EBD8EB584608EBD81E008954B
:100BA0008EB581608EBD8EB58D7F8EBD8EB5846015
:100BB0008EBD81E008958EB58E7F8EBD8EB58D7F02
:100BC0008EBD8EB58B7F8EBD81E00895613069F05A
:100BD00028F0623089F06330B1F01BC085B5877FA3
:100BE00085BD85B58F7B85BD14C085B5877F85BDE7
:100BF00085B5806485BD0DC085B5886085BD85B52A
:100C00008F7B85BD06C085B5886085BD85B5806450
:100C100085BDF9013197E730F10508F05DC0E45C6E
:100C2000FF4F0C94EF0C85B58E7F85BD85B5826036
:100C300085BD85B58B7F85BD81E0089585B58160D3
:100C400085BD85B5826085BD85B58B7F85BD81E01D
:100C5000089585B58E7F85BD85B58D7F85BD85B5AC
:100C6000846085BD81E0089585B5816085BD85B5C9
:100C70008D7F85BD85B5846085BD81E0089585B58E
:100C80008E7F85BD85B5826085BD85B5846085BD57
:100C900081E0089585B5816085BD85B5826085BD9B
:100CA00085B5846085BD81E0089585B58E7F85BD5D
:100CB00085B58D7F85BD85B58B7F85BD81E0089528
:100CC00080E0089580E0089580E0089580E0089530
:100CD00080E0089580E0089580E0089590E08231FA
:100CE0009105C8F5FC01ED5BFF4F0C94EF0C62BF62
:100CF00081E008957DBD6CBD81E0089564BD81E013
:100D000008956DBD81E008956CBD81E008957BBDBF
:100D10006ABD81E008956BBD81E008956ABD81E000
:100D2000089579BD68BD81E0089569BD81E00895A9
:100D300068BD81E0089577BD66BD81E0089567BD17
:100D400081E0089566BD81E0089563BD81E0089566
:100D50006CBF81E0089580E00895813099F018F02B
:100D6000823079F13DC0662319F0613031F03AC02C
:100D700089B7816089BF81E0089589B7826089BFA2
:100D800081E00895623099F018F4662331F02CC0A8
:100D9000633041F0643081F027C089B7846089BF37
:100DA00081E0089589B7886089BF81E0089589B797
:100DB000806189BF81E0089589B7806289BF81E041
:100DC0000895662319F0613031F010C089B780644E
:100DD00089BF81E0089589B7806889BF81E008955F
:100DE00080E0089580E0089580E0089580E008950F
:100DF000813059F018F0823079F015C082B790E058
:100E0000FB019183808381E008958CB59DB5FB0142
:100E10009183808381E0089584B590E0FB01918304
:100E2000808381E0089580E00895833038F5813033
:100E300079F018F08230B9F023C083B78E7F83BF7A
:100E400083B78D7F83BF83B78B7F83BF81E0089596
:100E50008EB58E7F8EBD8EB58D7F8EBD8EB58B7F10
:100E60008EBD81E0089585B58E7F85BD85B58D7F6A
:100E700085BD85B58B7F85BD81E0089580E00895AF
:100E800080E008951F920F920FB60F9211242F93B6
:100E90003F934F935F936F937F938F939F93AF9302
:100EA000BF93EF93FF936FEF70E082E00E946E06B6
:100EB0008091790090917A00A0917B00B0917C00A4
:100EC0000196A11DB11D8093790090937A00A093A3
:100ED0007B00B0937C00FF91EF91BF91AF919F9108
:100EE0008F917F916F915F914F913F912F910F90D3
:100EF0000FBE0F901F9018951F920F920FB60F9272
:100F000011242F933F934F935F936F937F938F930E
:100F10009F93AF93BF93EF93FF936FEF70E081E0E8
:100F20000E946E0680917D0090917E00A0917F00CE
:100F3000B09180000196A11DB11D80937D0090931A
:100F40007E00A0937F00B0938000FF91EF91BF914E
:100F5000AF919F918F917F916F915F914F913F9151
:100F60002F910F900FBE0F901F9018951F920F9208
:100F70000FB60F9211242F933F934F935F936F936C
:100F80007F938F939F93AF93BF93EF93FF936FEFF5
:100F900070E080E00E946E06809181009091820056
:100FA000A0918300B09184000196A11DB11D809392
:100FB000810090938200A0938300B0938400FF91FE
:100FC000EF91BF91AF919F918F917F916F915F91C1
:100FD0004F913F912F910F900FBE0F901F9018953A
:100FE00040916000409386001092850029C0822FB6
:100FF00090E0FC01EE0FFF1FE80FF91FEE0FFF1F3F
:10100000E656FF4F33813323C1F0832F642F0E94B4
:10101000E30C91110BC0832F0E94E30C909186008A
:10102000989F802D11248093860007C080918600B0
:10103000839F302D1124309386002F5F20938500ED
:1010400020918500233098F208958FEF80936100FE
:10105000109285003EC0822F90E0FC01EE0FFF1F32
:10106000E80FF91FEE0FFF1FE656FF4F4481558131
:10107000452B61F1FC01EE0FFF1FE80FF91FEE0F8A
:10108000FF1FE656FF4F318140916100341770F425
:10109000FC01EE0FFF1FE80FF91FEE0FFF1FE656D2
:1010A000FF4F4281411102C030936100FC01EE0FFD
:1010B000FF1FE80FF91FEE0FFF1FE656FF4F83815A
:1010C00090916000891710F4809360002F5F209347
:1010D000850020918500233008F4BDCF1092850053
:1010E00051C090E0FC01EE0FFF1FE80FF91FEE0F5B
:1010F000FF1FE656FF4F2281211132C0FC01EE0F87
:10110000FF1FE80FF91FEE0FFF1FE656FF4F41814B
:1011100030916100431324C0FC01EE0FFF1FE80F64
:10112000F91FEE0FFF1FE656FF4F0480F581E02DFB
:10113000309719F109958091850090E0FC01EE0F40
:10114000FF1FDF01A80FB91FAA0FBB1FA656BF4F75
:1011500013962C911397FD018FEF820F82830DC0A0
:10116000222359F0FC01EE0FFF1FE80FF91FEE0FCD
:10117000FF1FE656FF4F21502283809185008F5F2D
:101180008093850080918500833008F4AACF8091F8
:101190008600811102C00E94F007089523E030E02C
:1011A00040E050E062E082E00E942D046AEF70E0CF
:1011B00080E10E946E0661E082E00E94AD0681E05F
:1011C000089580918700882319F0813051F00EC076
:1011D00083E00E94BA030E94250881E08093870083
:1011E00005C00E941F0482E08093870081E008957B
:1011F000FC01208130E0D901AA0FBB1FA20FB31F51
:10120000AA0FBB1FA656BF4F96E001900D929A956C
:10121000E1F781E00895809188008F5F80938800D6
:101220001092870008951F920F920FB60F9211240B
:101230002F933F934F935F936F937F938F939F93DE
:10124000AF93BF93EF93FF930E940B09FF91EF9130
:10125000BF91AF919F918F917F916F915F914F91CE
:101260003F912F910F900FBE0F901F9018950E94E5
:1012700074000E94B700FDCFFC019081943008F00B
:101280008EC08181883008F08CC0913041F138F0F7
:10129000923009F444C0933009F461C084C0928153
:1012A000913071F44AB321E030E0B90102C0660F19
:1012B000771F8A95E2F7CB01842B8ABB81E00895E2
:1012C0004AB321E030E0B90102C0660F771F8A956A
:1012D000E2F7CB01809584238ABB80E00895928158
:1012E000913071F447B321E030E0B90102C0660FDC
:1012F000771F8A95E2F7CB01842B87BB81E00895A5
:1013000047B321E030E0B90102C0660F771F8A952C
:10131000E2F7CB018095842387BB81E00895928119
:10132000913071F444B321E030E0B90102C0660F9E
:10133000771F8A95E2F7CB01842B84BB81E0089567
:1013400044B321E030E0B90102C0660F771F8A95EF
:10135000E2F7CB018095842384BB81E008959281DC
:10136000913071F441B321E030E0B90102C0660F61
:10137000771F8A95E2F7CB01842B81BB81E008952A
:1013800041B321E030E0B90102C0660F771F8A95B2
:10139000E2F7CB018095842381BB81E0089580E052
:1013A000089580E0089580E00895843008F078C0C2
:1013B000683008F077C0813011F130F08230D1F11F
:1013C000833009F452C070C0413061F42BB381E026
:1013D00090E002C0880F991F6A95E2F7822B8BBBC1
:1013E00081E008952BB381E090E002C0880F991F3F
:1013F0006A95E2F7809582238BBB81E008954130A6
:1014000061F428B381E090E002C0880F991F6A95CB
:10141000E2F7822B88BB81E0089528B381E090E059
:1014200002C0880F991F6A95E2F78095822388BBD6
:1014300081E00895413061F425B381E090E002C07D
:10144000880F991F6A95E2F7822B85BB81E008958A
:1014500025B381E090E002C0880F991F6A95E2F7FA
:101460008095822385BB81E00895413061F422B3E9
:1014700081E090E002C0880F991F6A95E2F7822B05
:1014800082BB81E0089522B381E090E002C0880F22
:10149000991F6A95E2F78095822382BB81E00895C7
:1014A00080E0089580E0089581E008959FB79068F6
:1014B0009FBF643008F045C0811114C085B78C7F90
:1014C0006370682B65BF8BB780648BBFE9E8F0E081
:1014D00083E0808382E081831282CF010E943C09F5
:1014E00081E00895813099F485B7837F6C70682B13
:1014F00065BF8BB780688BBFE9E8F0E083E080834D
:1015000081831282CF010E943C0981E008958230DC
:10151000D1F4623021F484B78F7B84BF03C084B7D9
:10152000806484BF8BB780628BBFE9E8F0E081E024
:10153000808382E081831282CF010E943C0981E096
:10154000089580E0089580E00895882319F081309F
:1015500069F019C0E9E8F0E081E0808393E09183CD
:101560008283CF010E943C0981E00895E9E8F0E020
:1015700083E0808387E0818381E08283CF010E94C2
:101580003C0981E0089580E00895CF93653608F026
:101590004EC0C82F811122C083B7886483BF83B730
:1015A000816083BF83B7806283BF611102C01CBEAC
:1015B00038C070E080E090E00E94C10B2AE037ED77
:1015C00043E250E40E94760C20E030E040E85FE324
:1015D0000E941E0B0E94900B6CBF23C0813049F506
:1015E00085B5886485BD85B5816085BD85B580621A
:1015F00085BD611102C013BC14C070E080E090E0B2
:101600000E94C10B2AE037ED43E250E40E94760CC1
:1016100020E030E040E85FE30E941E0B0E94900B48
:1016200063BD8C2F0E94A50A811105C005C080E012
:1016300003C080E001C081E0CF9108955058BB27DE
:10164000AA270E94360B0C94370C0E94290C38F004
:101650000E94300C20F039F49F3F19F426F40C94CA
:10166000260C0EF4E095E7FB0C94200CE92F0E9469
:10167000480C58F3BA17620773078407950720F0E0
:1016800079F4A6F50C946A0C0EF4E0950B2EBA2FA3
:10169000A02D0B01B90190010C01CA01A001112478
:1016A000FF27591B99F0593F50F4503E68F11A1624
:1016B000F040A22F232F342F4427585FF3CF4695B5
:1016C00037952795A795F0405395C9F77EF41F16D7
:1016D000BA0B620B730B840BBAF09150A1F0FF0FA1
:1016E000BB1F661F771F881FC2F70EC0BA0F621F8D
:1016F000731F841F48F4879577956795B795F7957D
:101700009E3F08F0B0CF9395880F08F09927EE0F11
:101710009795879508950E94FC0B08F481E0089541
:101720000E94500C88F09F5798F0B92F9927B75115
:10173000B0F0E1F0660F771F881F991F1AF0BA9575
:10174000C9F714C0B13091F00E946A0CB1E008955D
:101750000C946A0C672F782F8827B85F39F0B93F4F
:10176000CCF3869577956795B395D9F73EF4909528
:101770008095709561957F4F8F4F9F4F0895E894A6
:1017800009C097FB3EF490958095709561957F4FC9
:101790008F4F9F4F9923A9F0F92F96E9BB27939577
:1017A000F695879577956795B795F111F8CFFAF487
:1017B000BB0F11F460FF1BC06F5F7F4F8F4F9F4FB8
:1017C00016C0882311F096E911C0772321F09EE816
:1017D000872F762F05C0662371F096E8862F70E07C
:1017E00060E02AF09A95660F771F881FDAF7880F56
:1017F0009695879597F90895990F0008550FAA0BAC
:10180000E0E8FEEF16161706E807F907C0F0121613
:101810001306E407F50798F0621B730B840B950B16
:1018200039F40A2661F0232B242B252B21F408956B
:101830000A2609F4A140A6958FEF811D811D089508
:1018400097F99F6780E870E060E008959FEF80EC73
:10185000089500240A941616170618060906089516
:1018600000240A9412161306140605060895092E7C
:101870000394000C11F4882352F0BB0F40F4BF2BEB
:1018800011F460FF04C06F5F7F4F8F4F9F4F08952B
:1018900057FD9058440F551F59F05F3F71F0479521
:1018A000880F97FB991F61F09F3F79F08795089506
:1018B000121613061406551FF2CF4695F1DF08C025
:1018C000161617061806991FF1CF86957105610542
:1018D00008940895E894BB2766277727CB0197F9EA
:1018E00008950E94FC0B08F48FEF08950E94890C64
:1018F0000C94370C0E94290C38F00E94300C20F018
:10190000952311F00C94200C0C94260C11240C94AB
:101910006B0C0E94480C70F3959FC1F3950F50E03B
:10192000551F629FF001729FBB27F00DB11D639F91
:10193000AA27F00DB11DAA1F649F6627B00DA11D37
:10194000661F829F2227B00DA11D621F739FB00DDD
:10195000A11D621F839FA00D611D221F749F33274D
:10196000A00D611D231F849F600D211D822F762FE6
:101970006A2F11249F5750409AF0F1F088234AF0C3
:10198000EE0FFF1FBB1F661F771F881F915050402F
:10199000A9F79E3F510580F00C94200C0C946B0C21
:1019A0005F3FE4F3983ED4F3869577956795B795B6
:1019B000F795E7959F5FC1F7FE2B880F911D9695D0
:1019C000879597F90895991B79E004C0991F961798
:1019D00008F0961B881F7A95C9F780950895EE0F39
:0E19E000FF1F0590F491E02D0994F894FFCFBD
:1019EE00FFFF010000036B0100010103E50002028D
:0419FE000203E701F8
:00000001FF
