:100000000C942A000C9447000C9447000C94470071
:100010000C9447000C9447000C9447000C94470044
:100020000C9447000C9447000C9447000C94470034
:100030000C9447000C9447000C9447000C94470024
:100040000C9447000C9447000C9447000C94470014
:100050000C94470011241FBECFE5D8E0DEBFCDBF12
:1000600010E0A0E6B0E0E4E5F6E002C005900D92F5
:10007000AC38B107D9F720E0ACE8B0E001C01D9280
:10008000A839B207E1F70E9449000C9428030C94A8
:100090000000CF93DF93CDB7DEB768970FB6F89423
:1000A000DEBF0FBECDBF8CE0E0E6F0E0DE011196D2
:1000B00001900D928A95E1F781E08D8795E09E870A
:1000C0008F87CE010D960E94AF00E980FA800B81E8
:1000D0001C812D813E814F81588569857A858B856C
:1000E0009C850E94C1018CE690E00E94B8028DE0E0
:1000F00090E00E94AB0282E790E00E94B802CE013D
:1001000042960E94E802811105C041E065E081E06D
:100110000E942B018DE790E00E94B802CE0142962A
:100120000E94B8028DE090E00E94AB0282E790E06E
:100130000E94B802CE0140960E94CC0284E890E072
:100140000E94B8028DE790E00E94B80288899989E0
:100150000E94AB028DE090E00E94AB02E7CFFC0171
:100160009081913019F130F09230E1F1933009F43F
:1001700055C06FC08281813061F42AB381E090E084
:10018000018002C0880F991F0A94E2F7822B8ABB74
:1001900060C02AB381E090E0018002C0880F991FFF
:1001A0000A94E2F7809582238ABB53C08281813012
:1001B00061F427B381E090E0018002C0880F991FAD
:1001C0000A94E2F7822B87BB44C027B381E090E01A
:1001D000018002C0880F991F0A94E2F7809582235C
:1001E00087BB37C08281813061F424B381E090E025
:1001F000018002C0880F991F0A94E2F7822B84BB0A
:1002000028C024B381E090E0018002C0880F991FCC
:100210000A94E2F78095822384BB1BC082818130DF
:1002200061F421B381E090E0018002C0880F991F42
:100230000A94E2F7822B81BB0CC021B381E090E0ED
:10024000018002C0880F991F0A94E2F780958223EB
:1002500081BB80E00895843008F078C0683008F0F1
:1002600077C0813011F130F08230D1F1833009F460
:1002700052C070C0413061F42BB381E090E002C005
:10028000880F991F6A95E2F7822B8BBB81E0089556
:100290002BB381E090E002C0880F991F6A95E2F7C6
:1002A000809582238BBB81E00895413061F428B3AF
:1002B00081E090E002C0880F991F6A95E2F7822BD7
:1002C00088BB81E0089528B381E090E002C0880FE8
:1002D000991F6A95E2F78095822388BB81E0089593
:1002E000413061F425B381E090E002C0880F991F8E
:1002F0006A95E2F7822B85BB81E0089525B381E002
:1003000090E002C0880F991F6A95E2F780958223DA
:1003100085BB81E00895413061F422B381E090E033
:1003200002C0880F991F6A95E2F7822B82BB81E099
:10033000089522B381E090E002C0880F991F6A956A
:10034000E2F78095822382BB81E0089580E00895E2
:1003500080E0089581E00895843049F490B5906874
:1003600090BD90B5966090BD9AB194609AB990B5E1
:10037000906890BD20B590E0880F991F822B80BDBA
:100380000895EF92FF920F931F93CF93DF93CDB712
:10039000DEB72C970FB6F894DEBF0FBECDBFE98253
:1003A000FA820B831C832D833E834F835887698792
:1003B0007A878B879C878CE0FE013196ACE8B0E0B1
:1003C00001900D928A95E1F780918D0090918E00B9
:1003D000A0918F00B0919000811520E19207A105B6
:1003E000B10508F09AC020918C0021111FC0880F20
:1003F000991FAA1FBB1F880F991FAA1FBB1F9C0113
:10040000AD01220F331F441F551F220F331F441FFE
:10041000551F60E072E18AE790E00E940603BA018E
:10042000A901415051096109710927C0223009F021
:1004300076C08BB182608BB980918D0090918E00D7
:10044000A0918F00B0919000880F991FAA1FBB1F29
:10045000880F991FAA1FBB1F9C01AD01220F331FDC
:10046000441F551F60E072E18AE790E00E94060396
:1004700021503109A90160E070E0BB27A72F962F1A
:10048000852F80BD49B980919100883011F081118C
:1004900048C09AB1892B8AB980919200803111F0BD
:1004A000811141C09AB1892B8AB98091930085301E
:1004B000E0F50E94AC0180919500882311F088300E
:1004C000B1F580B5806880BD90B5ECE8F0E081853D
:1004D000892B80BD8085882321F0803211F0803304
:1004E00041F580B5806880BD90B5ECE8F0E080858E
:1004F000892B80BD8285803411F081111CC09AB196
:10050000892B8AB980919700803811F0811115C02C
:100510009AB1892B8AB980E011C085E00FC081E0D3
:100520000DC086E00BC087E009C082E007C083E011
:1005300005C084E003C086E001C089E02C960FB6B8
:10054000F894DEBF0FBECDBFDF91CF911F910F9109
:10055000FF90EF9008955D9BFECF20919300243093
:1005600021F42AB19170922B9AB98CB980E0089548
:100570000F931F93CF938C01C0E004C090E00E94C2
:10058000AB02CF5FF801EC0FF11D80818111F6CF36
:10059000CF911F910F910895FC015F9BFECF809139
:1005A0009300843079F49BB19C71E9F78AB1869508
:1005B00081708AB92AB130E0322F22278CB1282BE2
:1005C000318320832CB130E03183208380E0089593
:1005D000BC0120E010C05F9BFECF9CB1992381F04D
:1005E0009D3071F0983011F4215005C0FB01E20FED
:1005F000F11D90832F5F422F50E0493051055CF38D
:10060000FB01E20FF11D108280E00895A1E21A2E95
:10061000AA1BBB1BFD010DC0AA1FBB1FEE1FFF1FA6
:10062000A217B307E407F50720F0A21BB30BE40BF6
:10063000F50B661F771F881F991F1A9469F760953D
:100640007095809590959B01AC01BD01CF010895F7
:04065000F894FFCF4C
:1006540000C8000000081003000000005374617219
:10066400740052656365697665643A200053656E6B
:0C067400743A20002020202020202000CC
:00000001FF
