S0120000535049204D61737465722E737265639A
S11300000C942A000C9447000C9447000C9447006D
S11300100C9447000C9447000C9447000C94470040
S11300200C9447000C9447000C9447000C94470030
S11300300C9447000C9447000C9447000C94470020
S11300400C9447000C9447000C9447000C94470010
S11300500C94470011241FBECFE5D8E0DEBFCDBF0E
S113006010E0A0E6B0E0E8E6F5E002C005900D92ED
S1130070A238B107D9F720E0A2E8B0E001C01D9290
S1130080A639B207E1F70E94BA000C94B2020C94AC
S11300900000EF92FF920F931F93CF93DF93CDB79E
S11300A0DEB764970FB6F894DEBF0FBECDBF88E00D
S11300B0E0E6F0E0DE01119601900D928A95E1F7F9
S11300C08CE0E8E6F0E0DE01199601900D928A9545
S11300D0E1F7E984FA840B851C852D853E854F85DF
S11300E0588969897A898B899C890E94690187B3B7
S11300F0806B87BB29813A814B815C816D817E81D4
S11301008F8198850E94BF0084E790E00E9460027E
S11301108DE090E00E94530264960FB6F894DEBF1F
S11301200FBECDBFDF91CF911F910F91FF90EF9044
S11301300895CF93DF93CDB7DEB7CF5FD1090FB664
S1130140F894DEBF0FBECDBF8AE790E00E94600244
S1130150CE0101960E947502CE0101960E943D01D6
S1130160C150DF4F0FB6F894DEBF0FBECDBFDF9195
S1130170CF9108950E9449000E949900FDCFCF932A
S1130180DF93CDB7DEB728970FB6F894DEBF0FBE66
S1130190CDBF29833A834B835C836D837E838F83B6
S11301A0988788E0FE013196A2E8B0E001900D92B4
S11301B08A95E1F780918900803811F0811140C05F
S11301C09DB1892B8DB980918700803211F0811106
S11301D039C09DB1892B8DB980918200882311F09B
S11301E0803191F59DB1892B8DB98091850088234B
S11301F011F0883059F59DB1892B8DB98091860015
S1130200882311F0843021F59DB1892B8DB980911B
S113021084008430F8F49DB1892B8DB980918300DA
S11302208230D0F49EB1892B8EB9809188008823C6
S113023011F0803499F49DB1892B8DB980E00FC001
S113024085E00DC082E00BC084E009C086E007C0F1
S113025087E005C088E003C089E001C083E02896F8
S11302600FB6F894DEBF0FBECDBFDF91CF910895D6
S11302708FB9779BFECF80E008950F931F93CF93A0
S11302808C01C0E003C00E943801CF5FF801EC0F7D
S1130290F11D80818111F7CF10820E94380180E026
S11302A0CF911F910F910895843049F490B59068CF
S11302B090BD90B5966090BD9AB194609AB990B58E
S11302C0906890BD20B590E0880F991F822B80BD67
S11302D00895EF92FF920F931F93CF93DF93CDB7BF
S11302E0DEB72C970FB6F894DEBF0FBECDBFE98200
S11302F0FA820B831C832D833E834F83588769873F
S11303007A878B879C878CE0FE013196AAE8B0E05F
S113031001900D928A95E1F780918B0090918C0069
S1130320A0918D00B0918E00811520E19207A10566
S1130330B10508F09AC020918A0021111FC0880FCE
S1130340991FAA1FBB1F880F991FAA1FBB1F9C01BF
S1130350AD01220F331F441F551F220F331F441FAB
S1130360551F60E472E48FE090E00E949002BA01AD
S1130370A901415051096109710927C0223009F0CE
S113038076C08BB182608BB980918B0090918C0088
S1130390A0918D00B0918E00880F991FAA1FBB1FDA
S11303A0880F991FAA1FBB1F9C01AD01220F331F89
S11303B0441F551F60E472E48FE090E00E949002B5
S11303C021503109A90160E070E0BB27A72F962FC7
S11303D0852F80BD49B980918F00883011F081113B
S11303E048C09AB1892B8AB980919000803111F06C
S11303F0811141C09AB1892B8AB9809191008530CD
S1130400E0F50E94540180919300882311F0883014
S1130410B1F580B5806880BD90B5EAE8F0E08185EB
S1130420892B80BD8085882321F0803211F08033B0
S113043041F580B5806880BD90B5EAE8F0E080853C
S1130440892B80BD8285803411F081111CC09AB142
S1130450892B8AB980919500803811F0811115C0DB
S11304609AB1892B8AB980E011C085E00FC081E080
S11304700DC086E00BC087E009C082E007C083E0BE
S113048005C084E003C086E001C089E02C960FB665
S1130490F894DEBF0FBECDBFDF91CF911F910F91B6
S11304A0FF90EF9008955D9BFECF20919100243042
S11304B021F42AB19170922B9AB98CB980E00895F5
S11304C00F931F93CF938C01C0E004C090E00E946F
S11304D05302CF5FF801EC0FF11D80818111F6CF3B
S11304E01082CF911F910F910895AC0120E05F9B82
S11304F0FECF9CB1992371F09D3061F0983021F4C6
S11305002223A9F32150F3CFFA01E20FF11D9083C6
S11305102F5FEDCFFA01E20FF11D108280E0089504
S1130520A1E21A2EAA1BBB1BFD010DC0AA1FBB1FF3
S1130530EE1FFF1FA217B307E407F50720F0A21B65
S1130540B30BE40BF50B661F771F881F991F1A94D2
S113055069F760957095809590959B01AC01BD01FC
S10B0560CF010895F894FFCFC8
S1130568100000000000400000C80000000810034C
S11305780000000053746172740053656E743A206D
S105058800006D
S9030000FC
