S017000044657369676E205061747465726E732E7372656342
S11300000C942A000C9447000C9447000C946F0342
S11300100C9447000C9448030C9447000C9447003C
S11300200C9447000C94A8030C9447000C94E2032E
S11300300C9447000C9447000C9447000C94470020
S11300400C9447000C9447000C9447000C94470010
S11300500C94470011241FBECFE5D8E0DEBFCDBF0E
S113006010E0A0E6B0E0E2E6FCE002C005900D92EC
S1130070AA36B107D9F720E0AAE6B0E001C01D9284
S1130080A93BB207E1F70E9497010C942F060C9448
S11300900000CF93DF9300D000D0CDB7DEB762E08D
S11300A082E00E94EF0246E061E0CE0101960E94E8
S11300B07E0142E061E0CE0103960E94480120E007
S11300C00FC0822F90E0880F991FFC01E258FF4F68
S11300D011821082FC01EA56FF4F118210822F5FB9
S11300E0293078F389819A810E9405018B819C8152
S11300F00E940A010E940F010E94EB02809180007D
S1130100909181000E943E0381E00F900F900F9028
S11301100F90DF91CF9108950E94B30081E008957C
S11301208CE690E00E94870108958CE690E00E949E
S11301308F0108956FEF70E082E00E949603809132
S11301406E0090916F00A0917000B09171000196C3
S1130150A11DB11D80936E0090936F00A093700059
S1130160B0937100089564E970E08AE690E00E941B
S113017051019091940080919500981719F081E0B5
S113018080939200809192008823F1F18091820003
S1130190909183000E94430320E046EA5EE060E021
S11301A070E082E00E948E05813071F580919400A8
S11301B090919500891731F1882301F180917E0097
S11301C090917F000E943E038091930081110CC0A6
S11301D080918000909181000E943E038091930061
S11301E08F5F809393000AC0882341F080917E0042
S11301F090917F000E943E0310929300809194009E
S11302008093950010929200089590936D008093CE
S11302106C00089590936B0080936A000895EEE754
S1130220F0E080819181A6E9B0E011969C938E93D1
S11302308281938113969C938E93129784819581E6
S113024015969C938E93149780E990E09183808314
S113025085E990E0938382838AE990E0958384839F
S11302600895CF93DF9300D01F92CDB7DEB7FC0182
S11302702081298381818A831B82CE0101960E9479
S11302809C0180E00F900F900F90DF91CF91089523
S1130290FC0160834183009711F00E94310181E0E9
S11302A00895CF93DF93EB01AB01FC016181808161
S11302B00E94B60288818093AA008881823010F05F
S11302C080E001C081E0DF91CF910895CF93DF9367
S11302D000D01F92CDB7DEB7FC0120812983818134
S11302E08A8381E08B83CE0101960E949C0180E089
S11302F00F900F900F90DF91CF910895FC016083D0
S11303004183009711F00E94660181E0089541E065
S1130310FC01618180810E94350281E0089540E002
S1130320FC01618180810E94350281E008950E9470
S113033049000E948C00FDCFFC019081943008F0AC
S11303408EC08181883008F08CC0913041F138F042
S1130350923009F444C0933009F461C084C092819E
S1130360913071F44AB321E030E0B90102C0660F64
S1130370771F8A95E2F7CB01842B8ABB81E008952D
S11303804AB321E030E0B90102C0660F771F8A95B5
S1130390E2F7CB01809584238ABB80E008959281A3
S11303A0913071F447B321E030E0B90102C0660F27
S11303B0771F8A95E2F7CB01842B87BB81E00895F0
S11303C047B321E030E0B90102C0660F771F8A9578
S11303D0E2F7CB018095842387BB81E00895928165
S11303E0913071F444B321E030E0B90102C0660FEA
S11303F0771F8A95E2F7CB01842B84BB81E00895B3
S113040044B321E030E0B90102C0660F771F8A953A
S1130410E2F7CB018095842384BB81E00895928127
S1130420913071F441B321E030E0B90102C0660FAC
S1130430771F8A95E2F7CB01842B81BB81E0089575
S113044041B321E030E0B90102C0660F771F8A95FD
S1130450E2F7CB018095842381BB81E0089580E09D
S1130460089580E0089580E00895843008F078C00D
S1130470683008F077C0813011F130F08230D1F16A
S1130480833009F452C070C0413061F42BB381E071
S113049090E002C0880F991F6A95E2F7822B8BBB0C
S11304A081E008952BB381E090E002C0880F991F8A
S11304B06A95E2F7809582238BBB81E008954130F1
S11304C061F428B381E090E002C0880F991F6A9517
S11304D0E2F7822B88BB81E0089528B381E090E0A5
S11304E002C0880F991F6A95E2F78095822388BB22
S11304F081E00895413061F425B381E090E002C0C9
S1130500880F991F6A95E2F7822B85BB81E00895D5
S113051025B381E090E002C0880F991F6A95E2F745
S11305208095822385BB81E00895413061F422B334
S113053081E090E002C0880F991F6A95E2F7822B50
S113054082BB81E0089522B381E090E002C0880F6D
S1130550991F6A95E2F78095822382BB81E0089512
S113056080E0089580E0089581E00895813089F065
S113057028F08230C9F0833011F12BC089B390E0A8
S113058002C0959587956A95E2F78170FA01808398
S113059020C086B390E002C0959587956A95E2F7EE
S11305A08170FA01808315C083B390E002C09595F1
S11305B087956A95E2F78170FA0180830AC080B357
S11305C090E002C0959587956A95E2F78170FA01EB
S11305D0808381E008958FB780688FBF08959FB7A7
S11305E090689FBF643008F045C0811114C085B77E
S11305F08C7F6370682B65BF8BB780648BBFEBE720
S1130600F0E083E0808382E081831282CF010E9444
S11306109C0181E00895813099F485B7837F6C70E3
S1130620682B65BF8BB780688BBFEBE7F0E083E096
S1130630808381831282CF010E949C0181E008950E
S11306408230D1F4623021F484B78F7B84BF03C03D
S113065084B7806484BF8BB780628BBFEBE7F0E024
S113066081E0808382E081831282CF010E949C0119
S113067081E0089580E0089580E008959093AE00AD
S11306808093AD0008959093AC008093AB000895DF
S11306901F920F920FB60F9211242F933F934F93F3
S11306A05F936F937F938F939F93AF93BF93EF93D6
S11306B0FF93E091AB00F091AC000995FF91EF91AD
S11306C0BF91AF919F918F917F916F915F914F9166
S11306D03F912F910F900FBE0F901F9018951F926E
S11306E00F920FB60F9211242F933F934F935F9362
S11306F06F937F938F939F93AF93BF93EF93FF93E6
S1130700E091AD00F091AE000995FF91EF91BF919A
S1130710AF919F918F917F916F915F914F913F9195
S11307202F910F900FBE0F901F901895813039F0C4
S113073018F0823041F00AC062BF81E008957DBDA7
S11307406CBD81E0089564BD81E0089580E0089562
S11307501F920F920FB60F9211242F933F934F9332
S11307605F936F937F938F939F93AF93BF93EF9315
S1130770FF936FEF70E081E00E9496038091730015
S113078090917400A0917500B09176000196A11D1E
S1130790B11D8093730090937400A0937500B0937F
S11307A07600FF91EF91BF91AF919F918F917F91CF
S11307B06F915F914F913F912F910F900FBE0F90CA
S11307C01F9018951F920F920FB60F9211242F931A
S11307D03F934F935F936F937F938F939F93AF93C5
S11307E0BF93EF93FF936FEF70E080E00E94960356
S11307F08091770090917800A0917900B0917A006F
S11308000196A11DB11D8093770090937800A09369
S11308107900B0937A00FF91EF91BF91AF919F91CE
S11308208F917F916F915F914F913F912F910F9095
S11308300FBE0F901F901895FC0181818031C1F487
S113084083B78F7B83BF83B7877F83BF83B72281BF
S113085093B7887F822B892B83BF838182BF808556
S1130860813009F049C089BF8FB780688FBF44C009
S1130870823101F588E083BF23B7978130E1939FEC
S1130880C0011124922F9F7C892B83BF83B72281BF
S113089093B7887F822B892B83BF838182BF858115
S11308A08CBF8085813041F582E089BF8FB7806835
S11308B08FBF22C0813101F583B7886483BF23B71A
S11308C0978130E1939FC0011124922F9F7C892B43
S11308D083BF83B7228193B7887F822B892B83BF01
S11308E0838182BF85818CBF8085813029F482E039
S11308F089BF8FB780688FBF81E00895FC01818133
S1130900811111C08FBD81818EBD8FB58C608FBD6B
S11309108085813009F04CC089B7846089BF8FB766
S113092080688FBF45C09FEF980F933090F085305B
S113093081F0863071F0873061F0883051F0893071
S113094041F08A3031F08B3021F08E3011F08F304D
S1130950B1F483708FBD81818C70880F8EBD8FB58B
S1130960837F8FBD8085813019F589B7806189BF08
S113097089B7886089BF8FB780688FBF19C08430FA
S113098011F08C30A9F483708FBD81818C70880F35
S11309908EBD8FB58C608FBD8085813049F489B759
S11309A0806189BF89B7886089BF8FB780688FBF2E
S11309B02FB5978130E1939FC0011124922F9F702E
S11309C0892B8FBD2FB5978130E4939FC0011124EB
S11309D0922F9F70892B8FBD8EB59281887F892B32
S11309E08EBD838194819DBD8CBD858196819BBD87
S11309F08ABD81E00895FC0181818031C9F485B507
S1130A008F7B85BD85B5877F85BD85B5228195B5ED
S1130A10887F822B892B85BD838184BD808581302D
S1130A2009F04AC080E489BF8FB780688FBF44C093
S1130A30823101F588E085BD25B5978130E1939F2A
S1130A40C0011124922F9F7C892B85BD85B52281FD
S1130A5095B5887F822B892B85BD838184BD858153
S1130A6083BD8085813041F580E889BF8FB7806878
S1130A708FBF22C0813101F585B5886485BD25B558
S1130A80978130E1939FC0011124922F9F7C892B81
S1130A9085BD85B5228195B5887F822B892B85BD3F
S1130AA0838184BD858183BD8085813029F480E87C
S1130AB089BF8FB780688FBF81E00895FC01908162
S1130AC0913041F018F0923049F00BC0CF010E94F0
S1130AD01C0407C0CF010E947E0403C0CF010E9402
S1130AE0FB0480E00895813039F018F0823089F0F9
S1130AF013C013BE81E008951FBC1EBC1DBC1CBCEA
S1130B001BBC1ABC19BC18BC89B78B7F89BF81E098
S1130B10089515BC81E0089580E00895CF92DF9296
S1130B20EF92FF921F93CF93DF93CDB7DEB7299750
S1130B300FB6F894DEBF0FBECDBF6A017B01122F42
S1130B40823009F067C08091720081111FC089E072
S1130B50E1E6F0E0DE01119601900D928A95E1F74D
S1130B60CE0101960E945E0581E08093720080E0D0
S1130B700BC0E82FF0E0E155FF4F9081992319F065
S1130B808093600003C08F5F8A3098F380916E0079
S1130B9090916F00A0917000B0917100C816D906B1
S1130BA0EA06FB0618F52091600021131FC082E0BD
S1130BB00E94730510926E0010926F0010927000E4
S1130BC01092710010927200E0916000F0E0E15523
S1130BD0FF4F10828FEF8093600029E040E050E0E7
S1130BE0BA0182E00E948E0511E019C020916000D4
S1130BF0121739F0E12FF0E0E155FF4FC08213E006
S1130C000EC08C159D05AE05BF0530F4121731F0EA
S1130C1012E005C012E003C012E001C010E08091B0
S1130C2060008F3F69F482E00E94730510926E00A9
S1130C3010926F0010927000109271001092720066
S1130C40812F29960FB6F894DEBF0FBECDBFDF917A
S1130C50CF911F91FF90EF90DF90CF900895F8947B
S1050C60FFCFC0
S10D0C62FF021002FF000000000171
S9030000FC
