S0120000546865726D6F737461742E73726563E7
S11300000C942A000C9447000C9447000C9447006D
S11300100C9447000C9447000C9447000C94470040
S11300200C9447000C9447000C9447000C94470030
S11300300C9447000C9447000C9447000C94470020
S11300400C9447000C9447000C9447000C94470010
S11300500C94470011241FBECFE5D8E0DEBFCDBF0E
S113006010E0A0E6B0E0EEE3F7E002C005900D92E8
S1130070A239B107D9F720E0A2E9B0E001C01D928E
S1130080A439B207E1F70E9408010C949D030C9473
S113009000000E94AE0260E082E00E94D80287E67F
S11300A090E00E940B036AE082E00E94D80282E999
S11300B090E00E940B03089560E081E00E94D80262
S11300C08BE690E00E940B030895CF93DF9385E7BE
S11300D090E00E940B0368E082E00E94D802D0E026
S11300E013C00E94F201C82F8A3219F08E3461F0D5
S11300F003C00E94AE0208C00E94E802ED2FF0E0A7
S1130100EE56FF4FC083DF5FD23058F3DF91CF91BB
S113011008950E940D010E94B2020E94F3000E9401
S1130120E90141E061E081E00E9439010E9465003B
S11301300E9449000E945C0008950F931F93CF937F
S1130140DF93CDB7DEB762970FB6F894DEBF0FBE6C
S1130150CDBF82E990E00E9442038C01BE016F5F33
S11301607F4F80E00E94150189819A8146E9489F6A
S11301709001499F300D1124A9E9BAE10E9433038B
S113018096958795929582958F7089279F70892778
S11301909A8389834AE0BE016D5F7F4F0E946003AA
S11301A066E081E00E94D802CE0103960E940B0310
S11301B089819A818017910718F00E94FA0002C081
S11301C00E94010187EA91E60197F1F700C000005F
S11301D062960FB6F894DEBF0FBECDBFDF91CF910C
S11301E01F910F91089541E061E081E00E9439017F
S11301F080E0089541E061E081E00E94910180E0A7
S1130200089540E061E081E00E94910180E008955A
S11302100E9489000E949D00FDCF86B1876886B93F
S113022087B1806487B980E0089561157105E9F0AC
S11302308830E8F497B18F71892B87B986B18064CF
S113024086B9349BFECF86B1846086B984B190E0D0
S1130250FB019183808325B130E0322F2227820F66
S1130260931F9183808380E0089581E0089581E065
S113027008958130D1F028F0823059F18330E9F1CA
S113028008952AB381E090E0062E02C0880F991FDA
S11302900A94E2F750E002C0440F551F6A95E2F752
S11302A080958223482B4ABB089527B381E090E0D0
S11302B0062E02C0880F991F0A94E2F750E002C08C
S11302C0440F551F6A95E2F780958223482B47BB5C
S11302D0089524B381E090E0062E02C0880F991F90
S11302E00A94E2F750E002C0440F551F6A95E2F702
S11302F080958223482B44BB089521B381E090E08C
S1130300062E02C0880F991F0A94E2F750E002C03B
S1130310440F551F6A95E2F780958223482B41BB11
S113032008958130D1F028F0823059F18330E9F119
S113033008952BB381E090E0062E02C0880F991F28
S11303400A94E2F750E002C0440F551F6A95E2F7A1
S113035080958223482B4BBB089528B381E090E01D
S1130360062E02C0880F991F0A94E2F750E002C0DB
S1130370440F551F6A95E2F780958223482B48BBAA
S1130380089525B381E090E0062E02C0880F991FDE
S11303900A94E2F750E002C0440F551F6A95E2F751
S11303A080958223482B45BB089522B381E090E0D9
S11303B0062E02C0880F991F0A94E2F750E002C08B
S11303C0440F551F6A95E2F780958223482B42BB60
S11303D008958AB38F708ABB8AB38E608ABB8FEF0D
S11303E08BBB0895CF93DF9350E06FC03BB3A0E67F
S11303F0B0E081E090E0EC010C9002C0CC0FDD1F76
S11304000A94E2F7FC0111960C90119702C0EE0FCA
S1130410FF1F0A94E2F7BC0112960C9002C0660F0B
S1130420771F0A94E2F72C2F2E2B262B232B2BBB82
S11304302BB3E52FF0E0E05AFF4F008002C0880F95
S1130440991F0A94E2F7809582238BBB40E03AC05F
S113045089B3E42FF0E0ED59FF4F6081262F90E03F
S113046002C0959587956A95E2F780FD2AC089B305
S113047090E0022E02C0959587950A94E2F780FFDA
S1130480F6CF513069F018F0523099F01AC0442375
S113049009F1413009F1423009F1433091F420C0AF
S11304A0442301F1413001F1423001F1433049F478
S11304B01FC04423F9F04130F9F04230F9F04330E1
S11304C0F9F04F5F443020F25F5F533008F48ECF71
S11304D08EE417C081E315C084E313C087E311C021
S11304E08AE20FC082E30DC085E30BC088E309C034
S11304F080E307C083E305C086E303C089E301C04A
S113050083E2DF91CF91089585B38F7785BB83ED27
S113051090E30197F1F700C0000085B3806885BBC4
S11305200895CF93C82F82B38F709C2F907F892B0F
S113053082BB85B38F7985BB0E94840222B330E1EC
S1130540C39FC0011124922F9F70892B82BB85B356
S11305508F7985BB0E948402CF91089581E00E9427
S11305609102089587E893E10197F1F700C0000034
S113057084B3806E84BB85B38F7185BB8FEF81BBE1
S113058085EA9EE00197F1F700C000000E94AE02E8
S113059082E00E94910288E20E94910286E00E9419
S11305A0910280E80E9491028FE00E9491020895D6
S11305B0603168F4813029F480E8860F0E9491024A
S11305C00895823021F480EC860F0E9491020895F0
S11305D0CF93C82F82B38F709C2F907F892B82BBBF
S11305E085B3806285BB85B38F7B85BB0E94840203
S11305F022B330E1C39FC0011124922F9F70892B35
S113060082BB85B3806285BB85B38F7B85BB0E942B
S11306108402CF9108950F931F93CF93DF938C019E
S1130620C0E018C0D1E0DC0F0F5F1F4F0E94E8024A
S1130630D03129F460E082E00E94D8020AC0CF5190
S1130640C23038F40E94AE0260E081E00E94D80219
S1130650D0E0CD2FF80180818111E4CFDF91CF91DB
S11306601F910F910895A29FB001B39FC001A39F52
S1130670700D811D1124911DB29F700D811D1124D7
S1130680911D0895FC0188279927E894219120322F
S1130690E9F3293010F02E30C8F32B3241F02D321B
S11306A039F4689404C00E946B03820F911D219158
S11306B020532A30C0F31EF4909581959F4F0895DE
S11306C0BB274A3031F4992322F4BDE290958195F9
S11306D09F4F0C9474037AE0979F902D879F802DF1
S11306E0910D11240895BB27FB015527AA27880FD4
S11306F0991FAA1FA41710F0A41B83955051B9F792
S1130700A05DAA3308F0A95DA193009779F7B11110
S1130710B1931192CB010C948D03DC01FC01672F82
S113072071917723E1F7329704C07C916D937083C4
S11107306291AE17BF07C8F30895F894FFCF87
S113073E010203040506074D61782054656D703D72
S113074E2020204300456E74657220746865206D08
S113075E6178696D756D2074656D703A2020204343
S105076E000085
S9030000FC
