:100000000C942A000C943C000C943C000C943C0092
:100010000C943C000C943C000C943C000C943C0070
:100020000C943C000C943C000C943C000C943C0060
:100030000C943C000C943C000C943C000C943C0050
:100040000C943C000C943C000C943C000C943C0040
:100050000C943C0011241FBECFE5D8E0DEBFCDBF1D
:1000600020E0A0E6B0E001C01D92AA36B207E1F799
:100070000E946F000C94D1000C9400008FEF8ABB9B
:1000800060EA80E00E9498000895CF93DF9300D04B
:10009000CDB7DEB7BE016F5F7F4F80E00E94A40046
:1000A000BE016E5F7F4F80E00E94BC008A81803677
:1000B00089F4BE016F5F7F4F80E00E94A400BE0103
:1000C0006E5F7F4F80E00E94BC008A81803811F40F
:1000D00089818BBB0F900F90DF91CF9108950E9483
:1000E0003E000E944500FDCF811120C083E290E0D8
:1000F000909367008093660086E590E09093690096
:100100008093680081E290E09093650080936400A2
:1001100080E290E0909363008093620082E290E03E
:10012000909361008093600080E0089581E00895DD
:10013000CF93C62F0E947400E0916000F09161009F
:10014000C08380E0CF910895CF93DF93EB010E94AD
:100150007400E0916800F091690084EC80838081F4
:100160008823ECF7E0916600F09167008081888336
:1001700080E0DF91CF910895CF93DF9361157105F2
:1001800061F0EB010E947400E0916400F091650061
:100190008081887F888380E001C082E0DF91CF91F9
:0601A0000895F894FFCF62
:00000001FF
