:100000000C947B000C9498000C9498000C9498002D
:100010000C94BC120C9493120C9498000C949800BD
:100020000C9498000C9498000C946A120C94411251
:100030000C9418120C943C130C9463130C948A13B4
:100040000C9420100C9498000C9498000C94980038
:100050000C949800F90EFD0E010F050F090F0D0FFE
:10006000110F150F330F500F570F5E0F650F6C0FE9
:10007000730F7A0F07634236B79BD8A71A396856B1
:1000800018AEBAAB558C1D3CB7CC5763BD6DEDFDBA
:10009000753EF6177231BF000000803F0800000077
:1000A000BE922449123EABAAAA2ABECDCCCC4C3E6D
:1000B00000000080BEABAAAAAA3E00000000BF005C
:1000C0000000803F0000000000084178D3BB438758
:1000D000D1133D190E3CC3BD4282AD2B3E68EC826C
:1000E00076BED98FE1A93E4C80EFFFBE01C4FF7FF1
:1000F0003F000000000011241FBECFE5D8E0DEBFA6
:10010000CDBF14E0A0E6B0E0E8E0FFE202C0059059
:100110000D92A232B107D9F724E0A2E2B4E001C007
:100120001D92A13CB207E1F70E94E90F0C948217DF
:100130000C9400009C01615090E00CC0D901A90F03
:10014000B11D8C91F901E60FF11D40814C93808324
:100150009F5F6150961790F30895EF92FF920F936F
:100160001F93CF93DF93FC018B01C0E0D0E02DC043
:100170007801EC0EFD1E9F01ADECBCEC0E947317E4
:100180009695879596958795969587959C01220FCC
:10019000331F880F991F880F991F880F991F820F8F
:1001A000931F9F01281B390BC901805DD7018C93D8
:1001B0009F01ADECBCEC0E947317FC01F695E7952E
:1001C000F695E795F695E7952196309789F606C05E
:1001D000F801EC0FFD1F80E380832196C417D5073B
:1001E000B8F36C2FC8010E949A00F801EC0FFD1FB4
:1001F00010828C2FDF91CF911F910F91FF90EF9084
:1002000008954F925F926F927F928F929F92AF92DA
:10021000BF92EF92FF921F93CF93DF932B013C018C
:100220007A01122F0E9495144B015C0180E090E04E
:100230000E94C4149B01AC01C301B2010E94B1131E
:100240002B013C0140E050E0B701C4010E94AD0029
:10025000C82FD0E0112331F1F701EC0FFD1F8EE222
:100260008083612F70E080E090E00E94C4149B01C5
:10027000AC0160E070E080E291E40E94E8159B012F
:10028000AC01C301B2010E947B152196A12EB12CB5
:10029000CE0DDF1D0E949514DC01CB01A501BE012E
:1002A0000E94AD00DF91CF911F91FF90EF90BF9022
:1002B000AF909F908F907F906F905F904F90089538
:1002C000AC0180E090E001C00196FA01E80FF91F4F
:1002D00020812111F9CF08958DE394E00E946001FF
:1002E0000997A9F420E00FC0822F90E0FC01E35CA5
:1002F000FB4F3081303368F0FC01E35CFB4F8081C1
:100300008A3348F42F5F293078F381E0089580E044
:10031000089580E0089580E008958F929F92AF92B3
:10032000BF92CF92DF92EF92FF920F931F93CF93E2
:10033000DF935C010E9460018C01912CC0E0D0E051
:1003400060E070E0CB0123C0F501E20FF31F808075
:100350004EE2841205C0E801C21BD30B219716C0E0
:1003600020E030E040E251E40E947B156B017C010B
:10037000682D70E060537109072E000C880B990BF3
:100380000E94C614A70196010E94B2139394292DCE
:1003900030E020173107C0F207C020E030E040E233
:1003A00051E40E942314E8018E0101501109CD2B64
:1003B000A1F7DF91CF911F910F91FF90EF90DF9008
:1003C000CF90BF90AF909F908F9008950F9305E0CE
:1003D00020E630E040E060EA81E00E94A90A0F9147
:1003E00008950F9305E09C0140E060EA81E00E94DF
:1003F000790A0F910895CF93DF931F92CDB7DEB79F
:100400009E012F5F3F4F40E064EA81E00E94020AB4
:1004100089818E3411F480E001C081E00F90DF917A
:10042000CF9108956BE970E080E00E94FD1268E0D2
:1004300080E00E94F8126DE374E080E00E94FD12FB
:1004400060EB70E080E00E94FD1208952EE440E031
:1004500064EA81E00E94480A0895CF93C82F282FAC
:1004600040E064EA81E00E94480A40E050E06DE329
:1004700074E08C2F90E00E94AD000E941202CF9198
:100480000895CF93DF931F92CDB7DEB781E08983C4
:100490009E012F5F3F4F40E064EA0E94020A0E94E3
:1004A000FB01882359F0898140E050E06DE374E05E
:1004B00090E00E94AD000E94120289810F90DF91AE
:1004C000CF910895FF920F931F93CF93DF93F82E50
:1004D00010E02FC0912F990F892F880F880F880F58
:1004E000891B80933804812F90E0EC01CC0FDD1F35
:1004F000880F991F880F991F880F991FC80FD91F40
:10050000C95BDB4F409138040AE09E0166EA81E056
:100510000E94790ABE018DE394E00E94C80F8823EF
:1005200039F06DED70E080E00E94FD1281E004C0C2
:100530001F5F1F1578F280E0DF91CF911F910F911F
:10054000FF90089581E394E00E94F10162E071E080
:1005500080E00E94FD1268E080E00E94F81267E2ED
:1005600074E080E00E94191367E274E081E394E094
:100570000E94C80F811105C06AE171E00E94FD125E
:10058000E5CF0895CF93DF93EC016AE371E080E05B
:100590000E94FD1267E671E080E00E94FD126CE7A8
:1005A00071E080E00E94FD1261E971E080E00E944C
:1005B000FD1260EB71E080E00E94FD126FEC71E0D3
:1005C00080E00E94FD1260EB70E080E00E94FD126E
:1005D00067ED71E080E00E94FD1268E080E00E941B
:1005E000F812BE0180E00E9412136DE080E00E94CC
:1005F000F81288818153853030F06BEE71E080E035
:100600000E94FD12C2CFDF91CF9108950F93CF9337
:10061000DF930E944102D82F0E94FB01811155C037
:100620006EE072E00E94FD1259C09C2F990F892F35
:10063000880F880F880F891B8093380480913804B5
:10064000875F80933704809137048F5F80933604EF
:100650004091380409E02DE334E066EA81E00E942D
:10066000790A67E472E080E00E94FD1268E080E0B1
:100670000E94F8126DE374E080E00E94FD12409148
:10068000360404E023E234E066EA81E00E94790A5D
:1006900061E972E080E00E94FD1268E080E00E9463
:1006A000F8126091230470912404809125049091A4
:1006B000260422E049E354E00E94010169E374E06A
:1006C00080E00E94FD12CF5F01C0C0E0CD1708F4AA
:1006D000ACCF60EB70E080E00E94FD12DF91CF9123
:1006E0000F9108950F93CF930E944102C82F883035
:1006F00031F462E272E080E00E94FD1267C065E3BF
:1007000072E080E00E94FD1268E080E00E94F81232
:100710006DE374E080E00E9419130E946C01813047
:1007200031F06DE472E080E00E94FD12E8CF8C2F82
:100730000E9462028111E3CF9C2F990F892F880FAD
:10074000880F880F891B8093380480913804875F55
:1007500080933704809137048F5F809336044091F3
:10076000380409E02DE334E066EA81E00E94A90A3A
:100770004091370420E066EA81E00E94480A6FE772
:1007800072E080E00E94FD1268E080E00E94F812B2
:1007900069E374E080E00E94191389E394E00E9409
:1007A0008D01609323047093240480932504909317
:1007B00026044091360404E023E234E066EA81E056
:1007C0000E94A90A81E08C0F0E942D02CF910F9107
:1007D00008950F936BE972E080E00E94FD1268E0DB
:1007E00080E00E94F81269E374E080E00E9419132F
:1007F00089E394E00E948D016093230470932404A4
:10080000809325049093260460912304709124041E
:10081000809125049091260420E03CE34CE156E4CD
:100820000E941E1488234CF404E023E234E040E0EC
:1008300062EA81E00E94A90A05C066EB72E080E0EE
:100840000E94FD120F9108950F9304E023E234E01B
:1008500040E062EA81E00E94790A6091230470918D
:100860002404809125049091260422E049E354E079
:100870000E94010169E374E080E00E94FD1260EBD8
:1008800070E080E00E94FD120F9108950E94260200
:100890000E94E6010E94A20282E294E00E94C2024B
:1008A00080912204853331F460ED72E080E00E9493
:1008B000FD12089580912204813319F40E9472037D
:1008C000EBCF80912204823319F40E940603E4CF17
:1008D00080912204833319F40E94E903DDCF8091D3
:1008E0002204843319F40E942404D6CF6BEE71E005
:1008F00080E00E94FD12D0CF80E00E94E51281E0EE
:100900000E94B81141E063E082E00E94BF090E94AA
:10091000E00A0E94A50C0E94DB0E81E00E94F5090E
:1009200080E00E94F00E80E00895CF93DF93CDB772
:10093000DEB7CF5FD1090FB6F894DEBF0FBECDBFD3
:10094000BE016F5F7F4F80E00E9419136EEE72E070
:10095000CE0101960E94C80F813021F40E94460406
:1009600080E012C064EF72E0CE0101960E94C80FD1
:10097000813021F40E94B80980E006C069EF72E07E
:1009800080E00E94FD128FEFC150DF4F0FB6F89448
:10099000DEBF0FBECDBFDF91CF910895DC0140E0F7
:1009A00007C0FB01E20FF31F2081921311C04F5FBC
:1009B000242F30E0FD01E20FF31F90819111F1CF60
:1009C000FB01E20FF31F80818111EBCF81E00895DD
:1009D00080E00895AC0180E090E001C00196FA014A
:1009E000E80FF91F20812111F9CF08957F928F928E
:1009F0009F92AF92BF92CF92DF92EF92FF920F93AE
:100A00001F93CF93DF936C010E94EA047C01C0E046
:100A1000D0E000E010E060E070E0CB0124C0F6011F
:100A2000EC0FFD1F70804EE2741206C08701021B9E
:100A3000130B0150110916C020E030E040E251E4F0
:100A40000E947B154B015C01672D70E060537109BA
:100A5000072E000C880B990B0E94C614A501940167
:100A60000E94B21321969E01CE15DF05C0F207C089
:100A700020E030E040E251E40E9423148E01E801BE
:100A80002197012BA9F7DF91CF911F910F91FF9033
:100A9000EF90DF90CF90BF90AF909F908F907F901E
:100AA0000895CF93DF931F92CDB7DEB781E00E9408
:100AB000BB0B82E00E94BB0B83E293E00E946E0EB0
:100AC00080EC0E94BB0B80E393E00E946E0ECE018F
:100AD00001960E94AE0B04C0CE0101960E94350B18
:100AE00089818111F9CF0F90DF91CF91089581E035
:100AF0000E94BB0B80E80E94BB0B81E493E00E9444
:100B00006E0E80EC0E94BB0B8FE493E00E946E0E91
:100B100008950F931F93CF93DF931F92CDB7DEB746
:100B200089838B0181E00E94BB0B80E80E94BB0B94
:100B30008EE593E00E946E0E80EC0E94BB0B80E37A
:100B400093E00E946E0ECE0101960E94AE0B04C08F
:100B5000CE0101960E94350B89818111F9CFF801F0
:100B600010820F90DF91CF911F910F9108950F93F5
:100B70001F93CF93DF931F92CDB7DEB789838B018D
:100B800081E00E94BB0B80E80E94BB0B8CE693E0E7
:100B90000E946E0E80EC0E94BB0B80E393E00E94EB
:100BA0006E0ECE0101960E94AE0B04C0CE010196DE
:100BB0000E94350B89818111F9CFF80110820F90C5
:100BC000DF91CF911F910F91089541E06BE481E097
:100BD0000E94EE11779BFECF8FB10E949E0F0E9464
:100BE0009E0F0E949E0F41E065EA74E081E00E9442
:100BF000021241E06FEA74E081E00E94021280E09C
:100C0000089581E00E94BB0B80E80E94BB0B8CE73B
:100C100093E00E946E0E80EC0E94BB0B8AE493E08E
:100C20000E946E0E63E080E00E94D3098823D1F316
:100C30000E94E50581E00E94BB0B80E80E94BB0B8F
:100C400088E893E00E946E0E0895FF920F931F9321
:100C5000CF93DF93CDB7DEB72B970FB6F894DEBFF7
:100C60000FBECDBF9E01255F3F4F40E064EA81E0AB
:100C70000E94020A8B858E34C1F10AE09E012F5F2B
:100C80003F4F40E066EA81E00E94790AF12C10E0D3
:100C900014C0125FF3940AE09E012F5F3F4F412F73
:100CA00066EA81E00E94790A1D3F18F48B85F816E8
:100CB00020F01092B40480E019C065EA74E0CE011F
:100CC00001960E94CE04813021F74AE0410F04E0F2
:100CD00021EA34E066EA0E94790A1093B404612F95
:100CE00080E00E94F81281E001C080E02B960FB6F0
:100CF000F894DEBF0FBECDBFDF91CF911F910F9152
:100D0000FF900895CF93DF931F92CDB7DEB719827E
:100D1000BE016F5F7F4F0E941F0F88E993E00E9422
:100D20006E0E898190E00E947B0E80E00F90DF9133
:100D3000CF910895CF92DF92FF920F931F93CF939D
:100D4000DF9300D000D000D0CDB7DEB76C0181E0DA
:100D50000E94BB0B80E80E94BB0B81EA93E00E94DB
:100D60006E0EF12C2BC08F2D806C0E94BB0B84E08B
:100D7000F81208C0E1E0F0E0EC0FFD1FEF0DF11DEF
:100D800010821FC00F2D10E081E090E08C0F9D1F9E
:100D9000800F911F0E94AE0B8AE20E94880DCE0147
:100DA00006960E94350BE1E0F0E0EC0FFD1FE00F2E
:100DB000F11F90818E81981791F3F394E4E0EF1581
:100DC00090F66FEA74E0CE0101960E94C80F813060
:100DD00019F4F601808302C0F601108280E02696A5
:100DE0000FB6F894DEBF0FBECDBFDF91CF911F913C
:100DF0000F91FF90DF90CF9008958F929F92AF92C6
:100E0000BF92DF92EF92FF920F931F93CF93DF93E6
:100E1000CDB7DEB72D970FB6F894DEBF0FBECDBFAE
:100E20007C0181E00E94BB0B80E80E94BB0B8BEA37
:100E300093E00E946E0ED12C58C08D2D806C0E94C4
:100E4000BB0B87E0D81208C0E1E0F0E0EC0FFD1F1B
:100E5000ED0DF11D10824DC00D2D10E081E090E0F0
:100E60008C0F9D1F800F911F0E94AE0BCE010D961F
:100E70000E94350BE1E0F0E0EC0FFD1FE00FF11FE9
:100E800080819D85891791F38A3241F4E1E0F0E099
:100E9000EC0FFD1FE00FF11F8EE28083E1E0F0E038
:100EA000EC0FFD1FE00FF11F80810E94880DE4E030
:100EB000DE120CC0E1E0F0E0EC0FFD1FE00FF11FCF
:100EC00080818E3289F0F701108253C0E1E0F0E0BA
:100ED000EC0FFD1FE00FF11F80818E3211F0833285
:100EE00019F4F701108245C0D394F7E0FD1508F01E
:100EF000A4CFCE0101960E94F6046093B5047093CE
:100F0000B6048093B7049093B80404E09E01275F71
:100F10003F4F40E062EA81E00E94790A8090B50488
:100F20009090B604A090B704B090B80429853A8593
:100F30004B855C85C501B4010E947615181624F412
:100F400081E0F701808315C02091A1043091A204B3
:100F50004091A3045091A404C501B4010E947615E8
:100F6000181624F482E0F701808303C083E0F701C0
:100F700080832D960FB6F894DEBF0FBECDBFDF91F4
:100F8000CF911F910F91FF90EF90DF90BF90AF90A6
:100F90009F908F9008950F931F93CF93DF9300D06E
:100FA00000D0CDB7DEB78C0163E080E00E94D309AA
:100FB000811103C00E94510536C0C8010E94FD0680
:100FC000F801808181112BC081E00E94BB0B80E879
:100FD0000E94BB0B88EB93E00E946E0E80EC0E9497
:100FE000BB0B85EC93E00E946E0E1C821B8212C02C
:100FF0001A82198205C089819A8101969A83898310
:1010000089819A818A369A40B0F38B819C810196BE
:101010009C838B838B819C81843F914048F3F801B2
:101020008081882309F20F900F900F900F90DF912D
:10103000CF911F910F910895CF93DF93C1EAD4E030
:101040002091B5043091B6044091B7045091B80492
:10105000688179818A819B810E94B1136883798339
:101060008A839B8380E0DF91CF910895EF92FF9276
:101070000F93CF93DF93CDB7DEB72D970FB6F894CC
:10108000DEBF0FBECDBF7B0163E080E00E94D309CD
:10109000811103C00E9451055EC081E00E94BB0B1C
:1010A00080E80E94BB0B85ED93E00E946E0E0E94CB
:1010B0001C080E94E20E1D8613C01C860BC01B86F6
:1010C00003C08B858F5F8B878B858B30D0F38C85AE
:1010D0008F5F8C878C858F3F91F78D858F5F8D8794
:1010E0008D858F3F51F70E94E90E6091A1047091A8
:1010F000A2048091A3049091A40422E030E0AE0108
:101100004F5F5F4F0E94010181E00E94BB0B80E8AE
:101110000E94BB0B8EED93E00E946E0ECE010196F5
:101120000E946E0E80EC0E94BB0B88EE93E00E9442
:101130006E0E63E080E00E94D3098111FACF4091E6
:10114000B404465F04E021EA34E066EA81E00E94EC
:10115000A90AF70110822D960FB6F894DEBF0FBED4
:10116000CDBFDF91CF910F91FF90EF9008951F9326
:10117000CF93DF9300D000D01F92CDB7DEB78FEFB3
:1011800089831D821C821B821A820E94770504C0FB
:10119000CE0105960E94350B8D818823C9F381E02D
:1011A0000E94BB0B80E80E94BB0B8D81813309F04C
:1011B000B0C004C0CE0105960E94350B8D818133ED
:1011C000C9F30E9401060E942506813009F095C0EE
:1011D00010E063E080E00E94D309882309F4BCC0DA
:1011E000CE0104960E949A068C818130F1F5CE01E1
:1011F00003960E94CB078B81833041F4BE016F5F61
:101200007F4F8A810E94360810E072C0823041F41C
:10121000BE016F5F7F4F8A810E94B70510E068C0F2
:101220008130F9F40E94BB0B80E80E94BB0B87EF72
:1012300093E00E946E0E80EC0E94BB0B80E393E073
:101240000E946E0ECE0102960E94AE0B04C0CE012B
:1012500002960E94350B8A818111F9CF198210E024
:1012600047C081E0898310E043C081113FC081E025
:101270000E94BB0B80E80E94BB0B1F5F88E094E0DC
:101280000E946E0E80EC0E94BB0B80E393E00E94F4
:101290006E0ECE0102960E94AE0B04C0CE010296E5
:1012A0000E94350B8A818111F9CF133008F181E05A
:1012B0000E94BB0B80E80E94BB0B82E194E00E947D
:1012C0006E0E80EC0E94BB0B80E393E00E946E0EDA
:1012D000CE0102960E94AE0B04C0CE0102960E947F
:1012E000350B8A818111F9CF19824BCF85E0898333
:1012F0008C81813009F06DCF44CF811107C0BE01D0
:101300006F5F7F4F8A810E9489053BCF85E089838B
:1013100038CF823309F035CF80E00E94820604C0C6
:10132000CE0105960E94350B8D818233C9F380EC86
:101330000E94BB0B80E393E00E946E0ECE010296EA
:101340000E94AE0B04C0CE0102960E94350B8A812A
:101350008111F9CF198215CF0E94510580E00F90BD
:101360000F900F900F900F90DF91CF911F910895E4
:101370000E94B708FDCF0E942E1180E008951F93B0
:10138000CF93DF93C82FD62F142F40E00E94471031
:10139000111104C06D2F8C2F0E94BB0980E0DF91DA
:1013A000CF911F9108950F931F93CF93DF931F92B7
:1013B000CDB7DEB7182F062F81E08983AE014F5FCE
:1013C0005F4F812F0E94F9108981811107C0AE0102
:1013D0004F5F5F4F602F812F0E94F91089810F901E
:1013E000DF91CF911F910F910895813039F480E002
:1013F0000E946311882321F082E0089581E008951E
:1014000080E008950F931F93CF93DF93211531054B
:1014100049F1813049F5E901042F162F80E00E943F
:101420007211811123C0612F0E948911811120C086
:10143000602F0E94891181111DC00E947D118111B0
:101440001BC0612F61600E948911811117C0BE010C
:101450000E949511811114C00E94AC11882391F053
:1014600082E011C084E00FC081E00DC082E00BC0BB
:1014700082E009C082E007C082E005C082E003C0CC
:1014800082E001C080E0DF91CF911F910F9108951C
:101490001F93CF93DF938130E9F4122FD42FC62FFF
:1014A00080E00E947211811117C06C2F0E94891177
:1014B000811114C06D2F0E948911811111C0612FFB
:1014C0000E94891181110EC00E94AC11882361F025
:1014D00082E00BC081E009C082E007C082E005C065
:1014E00082E003C082E001C080E0DF91CF911F91D4
:1014F0000895DF92EF92FF920F931F93CF93DF93A4
:1015000021153105C9F0813071F018C097012C0FF9
:10151000311D4C2F4D0D612F8D2F0E94020A81111C
:101520000FC0CF5F05C07901D42E162FD82FC0E091
:10153000C01760F380E005C084E003C081E001C013
:1015400082E0DF91CF911F910F91FF90EF90DF909C
:101550000895DF92EF92FF920F931F93CF93DF9343
:101560002115310501F18130A9F01FC0F701EC0F01
:10157000F11D20814C2F4D0D612F8D2F0E94480AA7
:10158000811115C00E949E0F0E949E0F0E949E0F07
:10159000CF5F05C07901D42E162FD82FC0E0C01719
:1015A00028F380E005C084E003C081E001C082E050
:1015B000DF91CF911F910F91FF90EF90DF900895F1
:1015C0000F931F93CF93C0E02BC00C2F10E0F801B6
:1015D000EE0FFF1FE00FF11FEF58FF4F42816181B7
:1015E00080810E944710C43058F4F801EE0FFF1FAD
:1015F000E00FF11FEF58FF4F618180810E942E1193
:10160000C43068F0F801EE0FFF1F0E0F1F1FF80126
:10161000EF58FF4F41E0618180810E94A010CF5FB1
:10162000C73098F280E0CF911F910F9108958B30D1
:1016300079F018F4873081F013C08D3029F08E30A6
:1016400079F4FB0110820FC081E0FB0180830BC0A5
:1016500082E0FB01808307C083E0FB01808303C03D
:1016600084E0FB01808380E00895CF92DF92EF92C7
:101670000F931F93CF93DF931F92CDB7DEB76C010B
:1016800010E046C0E02FF0E03496CF01880F991F9C
:10169000E80FF91FEF58FF4F41E0618180810E9400
:1016A000A0100F5F01C000E0033060F3E12FF0E015
:1016B0003496CF01880F991FE80FF91FEF58FF4F9D
:1016C00040E0618180810E94A010E12C00E01AC0FE
:1016D000EE2DF0E0CF01880F991FE80FF91FEF58AA
:1016E000FF4FAE014F5F5F4F618180810E94F91013
:1016F000898190E00E2C02C0880F991F0A94E2F7AE
:10170000082BE39483E08E1518F70F3021F41F5F48
:10171000133048F200E0133019F4F601108214C0BF
:10172000BE016F5F7F4F802F0E94170B898190E071
:10173000FC01EE0FFF1FE80FF91FEB59FF4FE10F00
:10174000F11D8081F601808380E00F90DF91CF91C1
:101750001F910F91EF90DF90CF900895CF93DF937B
:10176000EC01CE010E94350B88818823D1F380E003
:10177000DF91CF910895EF92FF921F93CF93DF9364
:10178000CDB7DEB760970FB6F894DEBF0FBECDBF02
:10179000182F0F2EF6E8EF2EF0E0FF2EF02D40E090
:1017A000F701618180810E94A01014FB442740F959
:1017B000F701628581850E94A01015FB442740F93E
:1017C000F701658584850E94A01016FB442740F927
:1017D000F701608987850E94A010412F441F44278C
:1017E000441FF701638982890E94A01041E0F7013C
:1017F000678186810E94A010188A1F8612C01E86EB
:101800001D8605C08D859E8501969E878D878D8559
:101810009E858A369A40B0F38F8598890196988B79
:101820008F878F859889892B51F3E6E8F0E040E0B7
:10183000678186810E94A0101C861B8612C01A86B2
:10184000198605C089859A8501969A878987898531
:101850009A858A369A40B0F38B859C8501969C8741
:101860008B878B859C85892B51F3412F41700F2EDF
:10187000F6E8EF2EF0E0FF2EF02DF701628581856E
:101880000E94A01011FB442740F9F701658584856B
:101890000E94A01012FB442740F9F7016089878558
:1018A0000E94A01013FB442740F9F7016389828945
:1018B0000E94A01041E0F701678186810E94A0107C
:1018C00018861F8212C01E821D8205C08D819E81D6
:1018D00001969E838D838D819E818A369A40B0F3D6
:1018E0008F819885019698878F838F819885892B22
:1018F00051F3E6E8F0E040E0678186810E94A010A5
:101900001C821B8212C01A82198205C089819A81A9
:1019100001969A83898389819A818A369A40B0F3A5
:101920008B819C8101969C838B838B819C81892BED
:1019300051F360960FB6F894DEBF0FBECDBFDF91B6
:10194000CF911F91FF90EF9008950F931F93CF9326
:10195000DF93CDB7DEB768970FB6F894DEBF0FBE42
:10196000CDBF10E00FC0812F90E0FC01EE0FFF1FF4
:10197000E80FF91FEA57FF4F4281618180810E9481
:1019800047101F5F173078F306E810E040E0F801D9
:10199000648183810E94A01041E0F8016781868103
:1019A0000E94A010188E1F8A12C01E8A1D8A05C0B0
:1019B0008D899E8901969E8B8D8B8D899E898A3615
:1019C0009A40B0F38F89988D0196988F8F8B8F896D
:1019D000988D449750F383E00E94BB0B1C8A1B8AAE
:1019E00012C01A8A198A05C089899A8901969A8B28
:1019F000898B89899A898A369A40B0F38B899C8928
:101A000001969C8B8B8B8B899C89059750F383E087
:101A10000E94BB0B188A1F8611C01E861D8605C03A
:101A20008D859E8501969E878D878D859E850397E2
:101A3000B8F38F8598890196988B8F878F859889C1
:101A40008639910550F383E00E94BB0B1C861B86F0
:101A500011C01A86198605C089859A8501969A87CC
:101A6000898789859A850397B8F38B859C8501962C
:101A70009C878B878B859C858639910550F382E006
:101A80000E94BB0B18861F8211C01E821D8205C0DA
:101A90008D819E8101969E838D838D819E8103978A
:101AA000B8F38F819885019698878F838F81988569
:101AB0008639910550F388E20E94BB0B1C821B8281
:101AC00011C01A82198205C089819A8101969A8370
:101AD000898389819A810397B8F38B819C810196D0
:101AE0009C838B838B819C818639910550F381E0A7
:101AF0000E94BB0B8EE00E94BB0B68960FB6F89459
:101B0000DEBF0FBECDBFDF91CF911F910F91089522
:101B1000EF92FF921F93CF93DF93CDB7DEB760971D
:101B20000FB6F894DEBF0FBECDBF182F0F2EF6E80C
:101B3000EF2EF0E0FF2EF02D41E0F7016181808172
:101B40000E94A01014FB442740F9F70162858185AB
:101B50000E94A01015FB442740F9F7016585848594
:101B60000E94A01016FB442740F9F7016089878581
:101B70000E94A010412F441F4427441FF70163898E
:101B800082890E94A01041E0F701678186810E944E
:101B9000A010188A1F8611C01E861D8605C08D855F
:101BA0009E8501969E878D878D859E850397B8F3C8
:101BB0008F8598890196988B8F878F859889892B37
:101BC00059F3E6E8F0E040E0678186810E94A010CA
:101BD0001C861B8611C01A86198605C089859A85C0
:101BE00001969A87898789859A850397B8F38B85AB
:101BF0009C8501969C878B878B859C85892B59F3C7
:101C0000412F41700F2EF6E8EF2EF0E0FF2EF02D61
:101C1000F701628581850E94A01011FB442740F9DD
:101C2000F701658584850E94A01012FB442740F9C6
:101C3000F701608987850E94A01013FB442740F9B3
:101C4000F701638982890E94A01041E0F701678152
:101C500086810E94A01018861F8211C01E821D82DC
:101C600005C08D819E8101969E838D838D819E818D
:101C70000397B8F38F819885019698878F838F811A
:101C80009885892B59F3E6E8F0E040E0678186818A
:101C90000E94A0101C821B8211C01A82198205C0EA
:101CA00089819A8101969A83898389819A81039790
:101CB000B8F38B819C8101969C838B838B819C8163
:101CC000892B59F360960FB6F894DEBF0FBECDBFD7
:101CD000DF91CF911F91FF90EF900895CF93DF9305
:101CE000EC0103C00E94880D219688818111FACFF2
:101CF000DF91CF9108951F93CF93DF93CDB7DEB7D8
:101D00002A970FB6F894DEBF0FBECDBFAC01892B6A
:101D1000A1F580E30E94880D44C09A01ADECBCECB3
:101D20000E947317969587959695879596958795B2
:101D30009C01220F331F880F991F880F991F880F4E
:101D4000991F820F931F9A01281B390BC901E1E0EB
:101D5000F0E0EC0FFD1FE10FF11D17FDFA95805D1E
:101D600080839A010E947317AC015695479556954A
:101D70004795569547951F5F01C010E041155105E5
:101D800061F611500CC0E1E0F0E0EC0FFD1FE10F37
:101D9000F11D17FDFA9580810E94880D11501123C5
:101DA00094F72A960FB6F894DEBF0FBECDBFDF9131
:101DB000CF911F91089541E064E082E00E944710B6
:101DC00080E0089541E064E082E00E94A01080E09D
:101DD000089540E064E082E00E94A01080E0089551
:101DE00090E08830910548F5FC01E65DFF4F0C94CA
:101DF0006D1780E00E94EE0F20C081E00E94EE0F80
:101E00001CC082E00E94EE0F18C083E00E94EE0F1B
:101E100014C084E00E94EE0F10C085E00E94EE0F17
:101E20000CC086E00E94EE0F08C040E067E08BB374
:101E30000E94471087E00E94EE0F80E008950F9304
:101E40001F93CF93DF9300D0CDB7DEB71A821982EC
:101E500090E08830910508F069C08B01FC01EE5CD0
:101E6000FF4F0C946D17BE016F5F7F4F80E00E94A3
:101E7000051089819A8126E9289FB001299F700D5C
:101E8000112480E090E00E94C41420E030E849E989
:101E900053E40E9423140E949514F801608346C005
:101EA000BE016F5F7F4F81E00E9405103FC0BE0101
:101EB0006F5F7F4F82E00E94051038C0BE016F5FE8
:101EC0007F4F83E00E94051031C0BE016F5F7F4FDE
:101ED00084E00E9405102AC0BE016F5F7F4F85E03D
:101EE0000E94051023C0BE016F5F7F4F86E00E94F5
:101EF00005101CC0BE016F5F7F4F87E00E94051078
:101F000089819A8126E9289FB001299F700D1124AB
:101F100080E090E00E94C41420E030E849E953E4F6
:101F20000E9423140E949514F801608380E00F90B2
:101F30000F90DF91CF911F910F910895CF93DF9371
:101F400000D000D0CDB7DEB71A82198215C01C822E
:101F50000BC01B8203C08B818F5F8B838B81803290
:101F6000D0F38C818F5F8C838C81803290F3898158
:101F70009A8101969A83898389819A818436910511
:101F800030F30F900F900F900F90DF91CF91089545
:101F9000DC0140E00AC0FB01E20FF31F2081921731
:101FA00019F04F5F80E00EC04F5F242F30E0FD013D
:101FB000E20FF31F9081992321F09D3061F781E0BA
:101FC00001C081E0FB01E40FF11D9081911180E0DF
:101FD00008950E947C040E949504FDCF86B180681C
:101FE00086B986B1816086B987B187B987B187B96B
:101FF00086B18F7D86B980E0089597B1892B87B926
:1020000086B1806486B980E008950F931F93CF93C3
:10201000C82F8B010E94FD0F349BFECF8C2F0E9496
:10202000FD0F349BFECF86B1806186B984B195B136
:10203000F8019183808380E0CF911F910F910895E3
:102040001F920F920FB60F9211242F933F934F932D
:102050005F936F937F938F939F93AF93BF93EF9310
:10206000FF93E091B904F091BA040995FF91EF91C3
:10207000BF91AF919F918F917F916F915F914F91A0
:102080003F912F910F900FBE0F901F9018958130A8
:10209000D1F028F0823059F18330E9F14FC02AB3F2
:1020A00081E090E0062E02C0880F991F0A94E2F7A3
:1020B00050E002C0440F551F6A95E2F780958223D5
:1020C000482B4ABB3BC027B381E090E0062E02C0FC
:1020D000880F991F0A94E2F750E002C0440F551F81
:1020E0006A95E2F780958223482B47BB27C024B32B
:1020F00081E090E0062E02C0880F991F0A94E2F753
:1021000050E002C0440F551F6A95E2F78095822384
:10211000482B44BB13C021B381E090E0062E02C0DF
:10212000880F991F0A94E2F750E002C0440F551F30
:102130006A95E2F780958223482B41BB80E00895A1
:102140008130D1F028F0823059F18330E9F14FC06D
:102150002BB381E090E0062E02C0880F991F0A94ED
:10216000E2F750E002C0440F551F6A95E2F78095F0
:102170008223482B4BBB3BC028B381E090E0062E66
:1021800002C0880F991F0A94E2F750E002C0440F82
:10219000551F6A95E2F780958223482B48BB27C0DC
:1021A00025B381E090E0062E02C0880F991F0A94A3
:1021B000E2F750E002C0440F551F6A95E2F78095A0
:1021C0008223482B45BB13C022B381E090E0062E4A
:1021D00002C0880F991F0A94E2F750E002C0440F32
:1021E000551F6A95E2F780958223482B42BB80E019
:1021F0000895813089F028F08230C9F0833011F1E0
:102200002BC089B390E002C0959587956A95E2F757
:102210008170FA01808320C086B390E002C095955A
:1022200087956A95E2F78170FA01808315C083B3C0
:1022300090E002C0959587956A95E2F78170FA0162
:1022400080830AC080B390E002C0959587956A9517
:10225000E2F78170FA01808380E00895813089F08F
:1022600028F08230C9F0833011F12BC081E090E07A
:1022700002C0880F991F6A95E2F79BB3892B8BBB2D
:1022800020C081E090E002C0880F991F6A95E2F7B4
:1022900098B3892B88BB15C081E090E002C0880FFD
:1022A000991F6A95E2F795B3892B85BB0AC081E037
:1022B00090E002C0880F991F6A95E2F792B3892BCC
:1022C00082BB80E0089581110BC08091210481B907
:1022D00080911F0480B98091200486BF80E008951A
:1022E00082E00895811107C084EA86BF06B607FE22
:1022F000FDCF80E0089582E00895811108C086B77F
:10230000806A86BF06B607FEFDCF80E0089582E0B2
:102310000895811108C063B984E886BF06B607FE38
:10232000FDCF80E0089582E008956115710581F088
:10233000811110C086B78F7B86BF86B7806886BF45
:1023400006B607FEFDCF83B1FB01808380E00895D0
:1023500081E0089582E00895811108C084E986BF74
:1023600096B7892F807194FDFBCF089582E0089580
:10237000823090F51DB88DB180618DB941E064E087
:1023800081E00E94471041E064E081E00E94A010DB
:1023900041E067E081E00E94471041E065E081E0B4
:1023A0000E9447108DB184608DB98DB1877F8DB942
:1023B0008DB18F7D8DB98EB18E7F8EB98DB18260DA
:1023C0008DB98DB181608DB98EB18EB18FB18DB166
:1023D00080648DB980E0089581E00895CF93423004
:1023E00060F4C62F40E064E081E00E94A010CFB905
:1023F000769B05C08FB184E003C083E001C080E01C
:10240000CF910895CF93DF93EB0141E0688181E0A4
:102410000E94EE11779BFECF8FB188830E949E0FA2
:102420008881882311F02196F0CFDF91CF91089514
:102430001F920F920FB60F9211242F933F934F9339
:102440005F936F937F938F939F93AF93BF93EF931C
:10245000FF93E0919704F0919804309709F0099563
:10246000FF91EF91BF91AF919F918F917F916F916C
:102470005F914F913F912F910F900FBE0F901F9042
:1024800018951F920F920FB60F9211242F933F931E
:102490004F935F936F937F938F939F93AF93BF936C
:1024A000EF93FF93E0919F04F091A004309709F01F
:1024B0000995FF91EF91BF91AF919F918F917F917E
:1024C0006F915F914F913F912F910F900FBE0F90A1
:1024D0001F9018951F920F920FB60F9211242F93F1
:1024E0003F934F935F936F937F938F939F93AF939C
:1024F000BF93EF93FF93E0919D04F0919E0430977A
:1025000009F00995FF91EF91BF91AF919F918F9144
:102510007F916F915F914F913F912F910F900FBEDF
:102520000F901F9018951F920F920FB60F921124C3
:102530002F933F934F935F936F937F938F939F93CB
:10254000AF93BF93EF93FF93E0919B04F0919C04B2
:10255000309709F00995FF91EF91BF91AF919F914D
:102560008F917F916F915F914F913F912F910F903C
:102570000FBE0F901F9018951F920F920FB60F92DB
:1025800011242F933F934F935F936F937F938F9378
:102590009F93AF93BF93EF93FF93E0919904F091D2
:1025A0009A04309709F00995FF91EF91BF91AF918F
:1025B0009F918F917F916F915F914F913F912F915B
:1025C0000F900FBE0F901F9018958AB180618AB945
:1025D0008AB188608AB98BB18D7F8BB98AB18B7FC4
:1025E0008AB980B5866880BD83E389B980E00895A3
:1025F0006CB95D9BFECF80E0089580E004C09CB97B
:102600005D9BFECF8F5FFB01E80FF11D9081911163
:10261000F6CF1CB85D9BFECF8DE08CB95D9BFECFE5
:1026200080E008955F9BFECF8CB1FB01808380E04A
:10263000089590E002C080E0982F5F9BFECFFB01E1
:10264000E90FF11D8CB180838D3099F081E0890F05
:10265000FB01E80FF11D31972081283029F48230E9
:1026600018F08FEF890FE8CF283031F7823020F74C
:10267000E2CF108280E008951F920F920FB60F9262
:1026800011242F933F934F935F936F937F938F9377
:102690009F93AF93BF93EF93FF93E091BB04F091AF
:1026A000BC040995FF91EF91BF91AF919F918F91DC
:1026B0007F916F915F914F913F912F910F900FBE3E
:1026C0000F901F9018951F920F920FB60F92112422
:1026D0002F933F934F935F936F937F938F939F932A
:1026E000AF93BF93EF93FF93E091BF04F091C004C9
:1026F0000995FF91EF91BF91AF919F918F917F913C
:102700006F915F914F913F912F910F900FBE0F905E
:102710001F9018951F920F920FB60F9211242F93AE
:102720003F934F935F936F937F938F939F93AF9359
:10273000BF93EF93FF93E091BD04F091BE04099520
:10274000FF91EF91BF91AF919F918F917F916F9189
:102750005F914F913F912F910F900FBE0F901F905F
:1027600018955058BB27AA270E94C9130C943C15F2
:102770000E942E1538F00E94351520F039F49F3F45
:1027800019F426F40C942B150EF4E095E7FB0C9449
:102790002515E92F0E944D1558F3BA1762077307E4
:1027A0008407950720F079F4A6F50C946F150EF4C4
:1027B000E0950B2EBA2FA02D0B01B90190010C0151
:1027C000CA01A0011124FF27591B99F0593F50F469
:1027D000503E68F11A16F040A22F232F342F4427C1
:1027E000585FF3CF469537952795A795F0405395B9
:1027F000C9F77EF41F16BA0B620B730B840BBAF089
:102800009150A1F0FF0FBB1F661F771F881FC2F7F3
:102810000EC0BA0F621F731F841F48F48795779507
:102820006795B795F7959E3F08F0B0CF9395880FC1
:1028300008F09927EE0F9795879508950E94011546
:1028400008F481E008950E9437140C943C150E940E
:10285000351558F00E942E1540F029F45F3F29F0FD
:102860000C94251551110C9470150C942B150E9485
:102870004D1568F39923B1F3552391F3951B550B2F
:10288000BB27AA2762177307840738F09F5F5F4F43
:10289000220F331F441FAA1FA9F335D00E2E3AF082
:1028A000E0E832D091505040E695001CCAF72BD09A
:1028B000FE2F29D0660F771F881FBB1F26173707EB
:1028C0004807AB07B0E809F0BB0B802DBF01FF271D
:1028D00093585F4F3AF09E3F510578F00C942515C0
:1028E0000C9470155F3FE4F3983ED4F3869577958A
:1028F0006795B795F7959F5FC9F7880F911D9695D6
:10290000879597F90895E1E0660F771F881FBB1F31
:10291000621773078407BA0720F0621B730B840BDE
:10292000BA0BEE1F88F7E09508950E94551588F0C0
:102930009F5798F0B92F9927B751B0F0E1F0660F83
:10294000771F881F991F1AF0BA95C9F714C0B130C4
:1029500091F00E946F15B1E008950C946F15672FE8
:10296000782F8827B85F39F0B93FCCF386957795F3
:102970006795B395D9F73EF49095809570956195DC
:102980007F4F8F4F9F4F0895E89409C097FB3EF407
:1029900090958095709561957F4F8F4F9F4F9923AC
:1029A000A9F0F92F96E9BB279395F695879577952A
:1029B0006795B795F111F8CFFAF4BB0F11F460FFEA
:1029C0001BC06F5F7F4F8F4F9F4F16C0882311F042
:1029D00096E911C0772321F09EE8872F762F05C056
:1029E000662371F096E8862F70E060E02AF09A95F1
:1029F000660F771F881FDAF7880F9695879597F9E6
:102A00000895990F0008550FAA0BE0E8FEEF16167F
:102A10001706E807F907C0F012161306E407F507D2
:102A200098F0621B730B840B950B39F40A2661F046
:102A3000232B242B252B21F408950A2609F4A140E9
:102A4000A6958FEF811D811D089597F99F6780E8F6
:102A500070E060E008959FEF80EC089500240A94F0
:102A60001616170618060906089500240A94121669
:102A70001306140605060895092E0394000C11F49C
:102A8000882352F0BB0F40F4BF2B11F460FF04C049
:102A90006F5F7F4F8F4F9F4F089557FD9058440FA2
:102AA000551F59F05F3F71F04795880F97FB991FAD
:102AB00061F09F3F79F0879508951216130614066A
:102AC000551FF2CF4695F1DF08C0161617061806F7
:102AD000991FF1CF86957105610508940895E894D2
:102AE000BB2766277727CB0197F908950E94011528
:102AF00008F48FEF08950E948E150C943C150E94E7
:102B00002E1538F00E94351520F0952311F00C9405
:102B100025150C942B1511240C9470150E944D153D
:102B200070F3959FC1F3950F50E0551F629FF00120
:102B3000729FBB27F00DB11D639FAA27F00DB11D39
:102B4000AA1F649F6627B00DA11D661F829F2227C2
:102B5000B00DA11D621F739FB00DA11D621F839F49
:102B6000A00D611D221F749F3327A00D611D231F1F
:102B7000849F600D211D822F762F6A2F11249F576D
:102B800050409AF0F1F088234AF0EE0FFF1FBB1F70
:102B9000661F771F881F91505040A9F79E3F51052F
:102BA00080F00C9425150C9470155F3FE4F3983E6B
:102BB000D4F3869577956795B795F795E7959F5FD9
:102BC000C1F7FE2B880F911D9695879597F908956B
:102BD000FA01EE0FFF1F309621053105A1F16115B5
:102BE000710561F48038BFE39B0749F16894903820
:102BF000810561F08038BFEF9B0741F099234AF5CA
:102C0000FF3FE1053105210519F1E8940894E795A6
:102C1000D901AA2329F4AB2FBE2FF85FD0F310C03F
:102C2000FF5F70F4A695E0F7F73950F019F0FF3A1E
:102C300038F49F779F930DD00F9007FC905808951C
:102C400046F00C942B1560E070E080E89FE3089557
:102C50004FE79F775F934F933F932F930E94E31625
:102C60002F913F914F915F910E947B150C944016DC
:102C700029F416F00C9425150C946F150C942B1553
:102C80000E945515A8F39638A0F707F80F92E8941C
:102C90002BE33AEA48EB5FE70E9491150F920F92FF
:102CA0000F924DB75EB70F920E942B17E4E7F0E04A
:102CB0000E9472164F915F91EF91FF91E595EE1F83
:102CC000FF1F49F0FE57E0684427EE0F441FFA95B6
:102CD000E1F74195550B0E94A5160F9007FE0C9445
:102CE00099160895DF93CF931F930F93FF92EF925E
:102CF000DF927B018C01689406C0DA2EEF010E94FE
:102D00008E15FE01E894A591259135914591559137
:102D1000A6F3EF010E94C913FE019701A801DA94FE
:102D200069F7DF90EF90FF900F911F91CF91DF91A6
:102D300008959B01AC0160E070E080E89FE30C9493
:102D400023140C9425150C945F170E945515D8F385
:102D50009923C9F3940F511DA3F39150504094F05F
:102D600059F0882332F0660F771F881F915050402A
:102D7000C1F79E3F51052CF7880F911D96958795B9
:102D800097F908955F3FACF0983E9CF0BB2786957D
:102D900077956795B79508F4B1609395C1F7BB0F28
:102DA00058F711F460FFE8CF6F5F7F4F8F4F9F4F51
:102DB000E3CF0C94701516F00C945F170C942B1540
:102DC00068940C9425150E945515A8F39923C1F316
:102DD000AEF3DF93CF931F930F93FF92C92FDD279D
:102DE00088232AF02197660F771F881FDAF720E0E3
:102DF00030E040E85FEB9FE3883920F0803E38F018
:102E000021968F770E94B213ECE9F0E004C00E9493
:102E1000B213E9ECF0E00E9472168B01BE01EC01E6
:102E2000FB2E6F5771097595771F880B990B0E94C0
:102E3000C61428E132E741E35FE30E948E15AF2D0F
:102E40009801AE01FF900F911F91CF91DF910E94E9
:102E5000C9130C943C15FA01DC01AA0FBB1F9B019E
:102E6000AC01BF5728F4222733274427507820C0CD
:102E7000B75190F4AB2F0024469537952795011C48
:102E8000A395D2F3002071F0220F331F441FB39596
:102E9000DAF30ED00C94B11361307105A0E88A0703
:102EA000B94630F49B01AC016627772788279078D4
:102EB000309621F0208331834283538308959F3FCE
:102EC00031F0915020F4879577956795B795880FE5
:102ED000911D9695879597F90895EE0FFF1F059020
:102EE000F491E02D0994A29FB001B39FC001A39F6C
:102EF000700D811D1124911DB29F700D811D112433
:082F0000911D0895F894FFCF24
:102F080031323334003132333435363738392A30B8
:102F1800230304000305000306000307000205015C
:102F28000206010207010302010303010202010173
:102F380000010101010102010103014143434F5511
:102F48004E5453204156414C4941424C453A200089
:102F58002A2A2A2A2A2A2A2A2A2A2A2A2A2A2A2AC9
:102F68002A2A2A2A2A2A2A2A2A2A2A2A2A2A2A2AB9
:102F78002A2A2A2A2A2A2A2A2A2A2A2A005B494E5F
:102F8800464F5D20494E56414C49442050414E2001
:102F9800414C5245414459204558495354532E2ECB
:102FA8002E00454E54455220594F55522053454303
:102FB8005245542050494E3A20005B494E464F5DD9
:102FC80020494E56414C49442050494E205472796C
:102FD80020416761696E2E2E2E002A2A2A2A2A2A63
:102FE8002A2A57656C636F6D6520746F2041544DB4
:102FF80020536572766963652A2A2A2A2A2A2A2A88
:103008002A2A2A2A2A2A00312E2053657420437539
:1030180073746F6D6572204461746100322E2047AD
:10302800657420437573746F6D65722044617461B3
:1030380000332E20536574204D6178696D756D20BD
:1030480042616C616E6365204163636F756E7400E5
:10305800342E20476574204D6178696D756D204266
:10306800616C616E6365204163636F756E740035D2
:103078002E205175697400456E74657220796F75DC
:10308800722063686F6963653A20005B494E464F5A
:103098005D20494E56414C49442043484F494345D9
:1030A8002054727920416761696E2E2E2E005B498B
:1030B8004E464F5D204D454D4F525920454D505479
:1030C80059005B494E464F5D204D454D4F525920A2
:1030D80046554C4C00454E54455220594F555220A8
:1030E8005345435245542050414E3A20005B494EC7
:1030F800464F5D20494E56414C49442050414E2090
:103108004D5553542042452039204E554D42455285
:10311800532054727920416761696E2E2E2E004526
:103128004E54455220594F555220414D4F554E54FB
:103138002042414C414E43453A2000454E544552A9
:10314800204D41582042414C414E4345204E554D5B
:103158004245523A20005B494E464F5D20494E5643
:10316800414C49442042414C414E43452E2E2E00AD
:103178005448414E4B205520464F52205553494EF6
:10318800472041544D204D414348494E4500414454
:103198004D494E005553455200496E76616C69643D
:1031A80020696E70757420506C6561736520656E5A
:1031B80074657220612076616C69642063686F6948
:1031C800636500436172642052656D6F76656400C3
:1031D800507265737320616E79206B65792E2E2E7F
:1031E80000312D496E736572742043617264003238
:1031F8002D446973706C61792054656D700043616A
:103208007264204465636C696E6564004E6F742057
:10321800656E6F7567682046756E640057616974DE
:10322800696E6720666F72004C4F4144494E4720D3
:10323800444154412E2E2E0054656D702069732030
:1032480000456E7465722050494E00456E74657273
:1032580020416D6F756E740057726F6E6720666FD0
:10326800726D617400466F726D61743A2078787877
:10327800782E787800415050524F564544004261AC
:103288006C616E63653A200052656D6F7665204308
:103298006172642E2E2E004D61782056616C204597
:1032A800786365656465640057726F6E672050497E
:1032B8004E00332077726F6E672050494E730007B7
:0232C8000403FD
:00000001FF
