:100000000C942A000C9447000C9447000C94470071
:100010000C9447000C9447000C9447000C94470044
:100020000C9447000C9447000C9447000C94470034
:100030000C940E040C94B1040C94D8040C94FF049A
:100040000C9447000C9447000C9447000C94470014
:100050000C94470011241FBECFE5D8E0DEBFCDBF12
:1000600011E0A0E6B0E0E0E5FAE002C005900D92F4
:10007000AE34B107D9F722E0AEE4B1E001C01D9281
:10008000A937B207E1F70E94E1020C9426050C940F
:10009000000087E691E00E94D4028A3040F487E6AF
:1000A00091E00E94D402882319F081E0089580E055
:1000B000089587E691E00E94D402893079F480E0C7
:1000C00009C0E82FF0E0E959FE4F908190539A3033
:1000D00038F48F5F8930A8F381E0089580E00895B7
:1000E00080E0089587E691E00E94D402843079F49C
:1000F00080E009C0E82FF0E0E959FE4F908190536D
:100100009A3038F48F5F8430A8F381E0089580E05E
:10011000089580E00895CF93DF931F92CDB7DEB7A7
:100120008EB18FB1AE014F5F5F4F64E081E00E94FE
:100130003C038981811112C00E94740341E068E58B
:1001400071E081E00E94EC0341E062E671E081E051
:100150000E94EC030E9489020E9470030F90DF91BD
:10016000CF9108950F9309E02EE431E040E060EA7A
:1001700081E00E94220228E531E04AE060EA81E065
:100180000E94220204E022E631E044E160EA81E0DC
:100190000E9422020F9108950F930E94740360E65B
:1001A00070E080E00E944A0467E671E080E00E940F
:1001B0005C040AC06CE770E080E00E944A0467E6D5
:1001C00071E080E00E945C040E944900813091F758
:1001D00009E027E631E040E060EA0E9452026DEB60
:1001E00070E080E00E944A0467E671E080E00E94CF
:1001F0005C040AC06CEC70E080E00E944A0467E690
:1002000071E080E00E945C040E945900813091F707
:1002100009E027E631E04AE060EA0E9452026DEE12
:1002200070E080E00E944A0467E671E080E00E948E
:100230005C040AC06CEF70E080E00E944A0467E64C
:1002400071E080E00E945C040E947200813091F7AE
:1002500004E027E631E044E160EA0E9452026DE1E9
:1002600071E080E00E944A040E94B2000E94700384
:100270000F91089581E00E949E0180E00E94370462
:1002800060E080E00E947F0440E651E060E080E0B2
:100290000E94940481E00E94CD036BE870E081E04D
:1002A0000E94050481E00E94FD030E9470030E94E9
:1002B000B200809162018F3F11F40E94CC0008953A
:1002C0006091710170E06E587E4F80E00E94AC0436
:1002D0008091710190E0FC01EE58FE4F20812D309D
:1002E00071F4FC01ED58FE4F108264E471E082E786
:1002F00091E00E94B302813011F40E94CC00809101
:1003000071018F5F80937101E82FF0E0EF58FE4F8D
:100310009081983041F4813021F0825080937101B6
:1003200002C010927101E0917101F0E0EF58FE4FB0
:1003300080818D3011F4109271010895813039F46B
:1003400080E00E947803882321F082E0089581E014
:10035000089580E008950F931F93CF93DF932115A5
:10036000310549F1813049F5E901042F162F80E06C
:100370000E948703811123C0612F0E949E03811177
:1003800020C0602F0E949E0381111DC00E94920315
:1003900081111BC0612F61600E949E03811117C0F3
:1003A000BE010E94AA03811114C00E94C1038823C8
:1003B00091F082E011C084E00FC081E00DC082E0C6
:1003C0000BC082E009C082E007C082E005C082E085
:1003D00003C082E001C080E0DF91CF911F910F91B7
:1003E00008951F93CF93DF938130E9F4122FD42F18
:1003F000C62F80E00E948703811117C06C2F0E94D6
:100400009E03811114C06D2F0E949E03811111C0A3
:10041000612F0E949E0381110EC00E94C103882398
:1004200061F082E00BC081E009C082E007C082E099
:1004300005C082E003C082E001C080E0DF91CF917F
:100440001F910895DF92EF92FF920F931F93CF9326
:10045000DF9321153105C9F0813071F018C0970183
:100460002C0F311D4C2F4D0D612F8D2F0E94AB0194
:1004700081110FC0CF5F05C07901D42E162FD82F60
:10048000C0E0C01760F380E005C084E003C081E0F5
:1004900001C082E0DF91CF911F910F91FF90EF900B
:1004A000DF900895DF92EF92FF920F931F93CF9307
:1004B000DF932115310501F18130A9F01FC0F7014B
:1004C000EC0FF11D20814C2F4D0D612F8D2F0E94BF
:1004D000F101811115C00E9489020E9489020E94C7
:1004E0008902CF5F05C07901D42E162FD82FC0E026
:1004F000C01728F380E005C084E003C081E001C09C
:1005000082E0DF91CF911F910F91FF90EF90DF90EC
:100510000895CF93DF9300D000D0CDB7DEB71A8215
:10052000198215C01C820BC01B8203C08B818F5F98
:100530008B838B818230D0F38C818F5F8C838C8115
:10054000803290F389819A8101969A838983898187
:100550009A818436910530F30F900F900F900F9091
:10056000DF91CF910895DC0140E00AC0FB01E20F6A
:10057000F31F2081921719F04F5F80E00EC04F5F8C
:10058000242F30E0FD01E20FF31F9081992321F029
:100590009D3061F781E001C081E0FB01E40FF11DB6
:1005A0009081911180E008959C0180E001C08F5FEF
:1005B000F901E80FF11D9081992311F09D30B9F7F1
:1005C00008950E943A01FFCF8130D1F028F08230A7
:1005D00059F18330E9F108952AB381E090E0062EC5
:1005E00002C0880F991F0A94E2F750E002C0440F3E
:1005F000551F6A95E2F780958223482B4ABB0895E0
:1006000027B381E090E0062E02C0880F991F0A945C
:10061000E2F750E002C0440F551F6A95E2F780955B
:100620008223482B47BB089524B381E090E0062E37
:1006300002C0880F991F0A94E2F750E002C0440FED
:10064000551F6A95E2F780958223482B44BB089595
:1006500021B381E090E0062E02C0880F991F0A9412
:10066000E2F750E002C0440F551F6A95E2F780950B
:100670008223482B41BB0895813089F028F08230D5
:10068000C9F0833011F1089589B390E002C09595C7
:1006900087956A95E2F78170FA018083089586B3A1
:1006A00090E002C0959587956A95E2F78170FA010E
:1006B0008083089583B390E002C0959587956A95ED
:1006C000E2F78170FA018083089580B390E002C060
:1006D000959587956A95E2F78170FA018083089570
:1006E0008FB780688FBF08958FB78F778FBF0895BA
:1006F00081110BC080914C0181B980914A0180B970
:1007000080914B0186BF80E0089582E008958111B9
:1007100007C084EA86BF06B607FEFDCF80E00895D5
:1007200082E00895811108C086B7806A86BF06B648
:1007300007FEFDCF80E0089582E00895811108C092
:1007400063B984E886BF06B607FEFDCF80E0089552
:1007500082E008956115710581F0811110C086B79E
:100760008F7B86BF86B7806886BF06B607FEFDCF43
:1007700083B1FB01808380E0089581E0089582E0E9
:100780000895811108C084E986BF96B7892F8071CA
:1007900094FDFBCF089582E008958230D8F41DB80F
:1007A0008DB18F7E8DB941E066E081E00E94E40268
:1007B0008DB184608DB98DB1877F8DB98DB18F7DFD
:1007C0008DB98EB18EB18FB11FB88DB180648DB9E6
:1007D00080E0089581E00895FB018081811104C0CB
:1007E0008FB9779BFECF06C08FB9779BFECF8FB1B5
:1007F0003196F3CF8FB18FEF08958FB780688FBF99
:100800008DB180688DB980E008956115710521F082
:10081000709372026093710280E008951F920F92AC
:100820000FB60F9211242F933F934F935F936F93C3
:100830007F938F939F93AF93BF93EF93FF93E09139
:100840007102F0917202309709F00995FF91EF91D2
:10085000BF91AF919F918F917F916F915F914F91D8
:100860003F912F910F900FBE0F901F9018958AB156
:1008700080618AB98AB188608AB98BB18D7F8BB962
:100880008AB18B7F8AB980B5866880BD83E389B9D8
:1008900080E0089580E004C09CB95D9BFECF8F5F2F
:1008A000FB01E80FF11D90819111F6CF8DE08CB91D
:1008B0005D9BFECF80E0089590E002C080E0982F1D
:1008C0005F9BFECFFB01E90FF11D8CB180838D3062
:1008D00099F081E0890FFB01E80FF11D319720812C
:1008E000283029F4823018F08FEF890FE8CF2830B4
:1008F00031F7823020F7E2CF108280E00895811135
:1009000011C0613041F018F0623049F00BC08AB17B
:1009100080688AB907C08AB180648AB903C08AB185
:1009200080628AB980E00895811114C0613049F075
:1009300018F0623059F00EC0509374024093730265
:1009400009C0509376024093750204C05093780218
:100950004093770280E008958CB1FB01808380E0B2
:1009600008951F920F920FB60F9211242F933F9369
:100970004F935F936F937F938F939F93AF93BF93A7
:10098000EF93FF93E0917302F09174020995FF9148
:10099000EF91BF91AF919F918F917F916F915F91F7
:1009A0004F913F912F910F900FBE0F901F90189570
:1009B0001F920F920FB60F9211242F933F934F93D4
:1009C0005F936F937F938F939F93AF93BF93EF93B7
:1009D000FF93E0917702F09178020995FF91EF91F2
:1009E000BF91AF919F918F917F916F915F914F9147
:1009F0003F912F910F900FBE0F901F9018951F924F
:100A00000F920FB60F9211242F933F934F935F9342
:100A10006F937F938F939F93AF93BF93EF93FF93C6
:100A2000E0917502F09176020995FF91EF91BF91E7
:100A3000AF919F918F917F916F915F914F913F9176
:100A40002F910F900FBE0F901F901895F894FFCF25
:100A5000456E746572205468652043617264204855
:100A60006F6C646572204E616D653A00506C656113
:100A7000736520656E746572206120436172642025
:100A8000486F6C646572204E616D65206265747795
:100A900065656E203120616E642039206368617263
:100AA000616374657273206C6F6E672E00456E749F
:100AB0006572205468652050414E3A00506C656163
:100AC000736520656E74657220612050414E206F01
:100AD000662039206E756D626572732E00456E74E6
:100AE0006572205468652050494E3A00506C65612B
:100AF000736520656E74657220612050494E206FC9
:100B0000662034206E756D626572732E00446174C8
:100B100061205570646174656421200D526574759F
:100B2000726E696E6720746F2055736572204D6F09
:0E0B300064652E0041444D494E000704030049
:00000001FF
