:100000000C942A000C9447000C9447000C94470071
:100010000C9447000C9447000C9447000C94470044
:100020000C9447000C9447000C9447000C94470034
:100030000C9447000C9447000C9447000C94470024
:100040000C9447000C9447000C9447000C94470014
:100050000C94470011241FBECFE5D8E0DEBFCDBF12
:1000600010E0A0E6B0E0E2E7F3E002C005900D92F8
:10007000A836B107D9F720E0A8E6B0E001C01D928C
:10008000A836B207E1F70E9449000C94B7010C941E
:100090000000CF93DF93CDB7DEB762970FB6F89429
:1000A000DEBF0FBECDBF0E948F000E94F20080E62F
:1000B00090E00E944B0168E081E00E94180183E417
:1000C0000E9428010E94BB00BE016F5F7F4F80E04D
:1000D0000E94970089819A8146E9489F9001499F33
:1000E000300D1124A9E9BAE10E9473019695879514
:1000F000929582958F7089279F7089279A8389832B
:100100004AE0BE016D5F7F4F0E94820166E081E0A0
:100110000E941801CE0103960E944B01D5CF86B1F3
:10012000876886B987B1806487B980E008956115D2
:100130007105E9F08830E8F497B18F71892B87B9A0
:1001400086B1806486B9349BFECF86B1846086B95F
:1001500084B190E0FB019183808325B130E0322FA0
:100160002227820F931F9183808380E0089581E08E
:10017000089581E008958AB38F708ABB8AB38E6038
:100180008ABB8FEF8BBB089585B38F7785BB83EDDB
:1001900090E30197F1F700C0000085B3806885BB4C
:1001A0000895CF93C82F82B38F709C2F907F892B97
:1001B00082BB85B38F7985BB0E94C40022B330E136
:1001C000C39FC0011124922F9F70892B82BB85B3DE
:1001D0008F7985BB0E94C400CF91089581E00E9471
:1001E000D100089587E893E10197F1F700C000007E
:1001F00084B3806E84BB85B38F7185BB8FEF81BB69
:1002000085EA9EE00197F1F700C000000E94EE0031
:1002100082E00E94D10088E20E94D10086E00E9424
:10022000D10080E80E94D1008FE00E94D1000895A3
:10023000603168F4813029F480E8860F0E94D10093
:100240000895823021F480EC860F0E94D100089539
:10025000CF93C82F82B38F709C2F907F892B82BB46
:1002600085B3806285BB85B38F7B85BB0E94C4004C
:1002700022B330E1C39FC0011124922F9F70892BBC
:1002800082BB85B3806285BB85B38F7B85BB0E94B3
:10029000C400CF9108950F931F93CF93DF938C01E8
:1002A000C0E018C0D1E0DC0F0F5F1F4F0E94280193
:1002B000D03129F460E082E00E9418010AC0CF51D9
:1002C000C23038F40E94EE0060E081E00E94180124
:1002D000D0E0CD2FF80180818111E4CFDF91CF9163
:1002E0001F910F910895A29FB001B39FC001A39FDA
:1002F000700D811D1124911DB29F700D811D11245F
:10030000911D0895BB274A3031F4992322F4BDE2B0
:10031000909581959F4F0C948E01BB27FB0155272B
:10032000AA27880F991FAA1FA41710F0A41B839552
:100330005051B9F7A05DAA3308F0A95DA1930097C9
:1003400079F7B111B1931192CB010C94A701DC01A3
:10035000FC01672F71917723E1F7329704C07C91FC
:100360006D9370836291AE17BF07C8F30895F89438
:02037000FFCFBD
:0803720054656D703D20000090
:00000001FF
